:020000040000FA
:06000000D6EF07F012002C
:0600080004EF08F01200F5
:02000E009D94BF
:04001000BD6A1200B3
:060018000CEF08F01200DD
:02001E000100DF
:0C0020000E100000790400000500000034
:04002C006BEC06F083
:10003000A09A6A6A686A706AB5EC05F003EC06F08B
:10004000DF6AEBEC05F003E29BEC05F0FAD76D8C70
:100050006E6A6D986D9C68A607D068960401496B1E
:100060004E6B4F6B506BF7D70401010E606F616FE1
:10007000626B636B566BDF6A020EDF5C11E2EA6A49
:10008000DF346EEC06F0EA22EE6AED6AEA6ADF34EB
:1000900075EC06F0EA22EE6AED6AABEC05F0ECD7FF
:1000A0000401080E416F040E426F160E706E0401BB
:1000B000200E026F040E036F080E016F840E006F96
:1000C0000401376B366BE55275EF05F06BEC06F00B
:1000D0000401360507E16DBA05D0686A6980698850
:1000E000020E366F6850040B05E06950040B02E005
:1000F00068943FDB6DB245D06850010B09E0695050
:10010000010B06E093DFA08A0401040E366F6890AD
:100110006850100B05E06950100B02E020DB689876
:1001200068AC0FD069AC05D00AEC06F0730E62EC37
:1001300005F0689C04015E5101E05E075E5101E13B
:1001400009D96850200B04E06950200B01E0F7DA70
:100150006850020B0BE06950020B08E00AEC06F055
:10016000E6687F0EE66E7CEC06F06A6A040E040117
:10017000E76E3619E8AE02D0E73402D0E750365DBC
:1001800002E2A19A2ED069A62BD0DF6A040EDF5CB2
:1001900027E268A625D06CCF57F404015751780B9D
:1001A000E842E842E842586F689657B504D0585183
:1001B00083EC06F003D0585188EC06F0EA22EF7089
:1001C000585102E1E2DA0AD0000EE66EE66A570EF6
:1001D000E66E040EE66E720E62EC05F0DF2AD6D7EC
:1001E000A19AE55275EF05F03DEC06F0FD0EDBA49B
:1001F00003D0E66AF3EC05F0FD0EDBA204D0010E9D
:10020000E66EF3EC05F0FE0EDB500C6A700F0B6E21
:100210000F0EE5EC05F066EC05F0FD0EDBCFEFFF11
:10022000020EE15C02E2E16AE552E16E75EF05F073
:100230003DEC06F0FD0EDB5003E05DEC05F002D076
:100240008CEC05F0D1EC05F0D9CFE9FFDACFEAFF6D
:10025000EE50ED1003E1F36AF46A28D066EC05F085
:1002600097EC06F0FB0EDBCFEEFFFC0EDBCFEDFFD5
:1002700066EC05F0EE52FA0EDBCFEFFF400E8DEC90
:1002800006F0880E9CEC06F0FD0EDB5003E05DEC02
:1002900005F002D08CEC05F0EA22EF74DECF0BF013
:1002A000DDCF0CF00BC0F3FF0CC0F4FF020EE15CDD
:1002B00002E2E16AE552E16E75EF05F03DEC06F011
:1002C000FE0EDB5003E14BEC06F009D091EC05F09B
:1002D0002BEC06F091EC05F0010F2BEC06F0020E72
:1002E000E15C02E2E16AE552E16E75EF05F070EC67
:1002F00005F06DA816D05CEC06F0400EEE16EE6A26
:10030000EE6AEE6A5CEC06F0EE7CD7DBEA22EF7474
:10031000400E0B6E5CEC06F00B50EF165CEC06F03A
:10032000EF7CE3D36D6A696A0401366B1200040145
:1003300036510FE16D6A696A03EC06F0D08EA28A2D
:10034000A08AF28E6DB602D06D86FCD70401010E34
:10035000366F12000401605122E1010E606F61519D
:100360001EE1010E616F020E465D07E1B4DBEE5245
:10037000EF6AB1DBC80EEF6E1200460510E1596B53
:10038000C0DBEE52080EEF6EBCDB37EC06F0B9DBDB
:10039000840EEF6E010E596F8CDB800EEF6E120033
:1003A0000401626B636B020E465D06E191EC06F0A0
:1003B000ADDB26EC06F010D04A510401265D0401A5
:1003C0004B510401275904E226C44AF427C44BF4D4
:1003D00061D881DB9BDB7FDBC80EEF6E12003DEC4A
:1003E00006F0000EDE6E040EDD6E9BDB040DF4CF16
:1003F0000CF0D9CFE9FFDACFEAFFF350EE260C502C
:10040000ED2264DBEF9EFD0EDB5002E185DB01D0C7
:1004100054DBEA22DECFEEFFDDCFEDFF57DBEF9CB2
:1004200055DB040EE926000EEA22EF8C020EE15C99
:1004300002E2E16AE552E16E58D36D98040149BFCA
:100440000DD04EAF09D0020E466F635101E1A8DF17
:100450000401616B606B12004BEF06F0040120AFEA
:100460000DD00401010E466F625101E199DF0401D4
:10047000616B606B5F510DE1AAEF01F00401020EA8
:10048000466F17DB840EEF6E616B606B5F5101E1AD
:1004900061DF12006BEC06F0080EDF6E04014A5DAE
:1004A000000E4B590AE24AC4DFFF455102E1010E3A
:1004B00003D0450502E1020E456FDF500C6AE8509B
:1004C0004A5D4A6F0C504B594B6F05DBEE52DFCF44
:1004D000EFFF280E536F040E546F49B10DD0DF505B
:1004E00017E047C4F6FF48C4F7FF472B000E482328
:1004F0000800F55049DBF3D7DF500AE047C4E9FFB5
:1005000048C4EAFF472B000E4823EF503DDBF4D7E9
:10051000E552EBD2B2DBF5DAEE52EFCFDFFFDFCF01
:100520000BF00B5004014F5D000E505902E24FC416
:10053000DFFFDF500B6E0C6AE8504F5D4F6F0C50C1
:100540005059506F010EDB6ADF50F36E010EDBCFA6
:10055000F4FFF350F45C16E2010EDB50EA6A280F58
:10056000E96E040EEA22EF50E66E4CC4E9FF4DC47A
:10057000EAFF4C2B000E4D23E552E750EF6E010EC3
:10058000DB2AE2D7000ED8804F55000E50550DE201
:10059000C8DBBCDAB6DAEF50400B03E157DBC80E1C
:1005A00002D054DB880EEF6E12D083DA840EEF6E29
:1005B0005151521107E005D052C4FAFF04015151C4
:1005C000F96EFADF04014E9F5F5101E1C3DE020EB6
:1005D000E15C02E2E16AE552E16E87D27CDB040174
:1005E000498FC3DADF6AF7DA02E2A5DAFCD76D8C4D
:1005F000DF6A020EDF5C02E2AEDAFBD7010EE66EC6
:10060000E66AE66A380EE66E040E5DDB6D9C040158
:10061000080E416F040E426F000E396F040E3A6FE0
:1006200039C43BF43C6F22C437F4375102E1100E59
:100630000BD0010EE66EE66A370EE66E040EE66E2D
:10064000010E40DA0401200E366FE5524ED2800EC4
:100650000401205D38E10401C00E496F04012351FB
:10066000030A1AE0010A09E0030A2BE104013E0E25
:10067000476F1C0E486F120E1ED0DADAB90EF6263E
:100680001C0EB9DA020E0401CCDAF5CF4AF4030EDF
:10069000C8DAF5CF4BF41200030E225D0FE2C8DA80
:1006A000BB0EF6261C0EA7DA47C4F6FF48C4F7FFB8
:1006B0000800F55004014A6F4B6B12000401496BAE
:1006C00012000401496B1200D8DA0401286B296B6F
:1006D00020511F0B020A11E0030A0CE0010A1EE17F
:1006E0000401498F040128810401550517E1040123
:1006F000288314D00401498F11D00401498F0401CB
:1007000024BF02D0CFDA01D0D2DA4BDAD8DA06E051
:10071000DDD9EF50040B02E0010E286F040149AF50
:1007200007D0280E476F040E486F4981020E4A6FAA
:10073000020EE15C02E2E16AE552E16ED6D170A000
:100740000CD0DFD9EF50800807E1C5D9EF508408FD
:1007500003E1D7D98C0EEF6E7090689A120069840D
:1007600068986D820401010E566F21DA750E62EFF2
:1007700005F00401566B1BDA740EA4D96D926994CE
:1007800068A402D06894FCD71200A5DA04012D0EEB
:100790005E6FFD0E571539E17E0E5715E8407F0B51
:1007A000040DF3CF39F4F4CF3AF4000E3927040ED8
:1007B0003A2339C43BF43AC43CF43B75A2D9EF5018
:1007C0003C0BE842E8420D081EE1DF6A080EDF5CE0
:1007D00016E297D9020EE926000ED0D9EF50E66E48
:1007E000DF50EA6A200FE96E040EEA22E552E75074
:1007F000EF6E87D99CDAEE2AEF22DF2AE7D781D97C
:1008000036DA0AD807D023D805D0FD0E57150408CC
:1008100001E12CD8E55269D10401456B5F6B626B35
:10082000636B596B466B57D9EF9E417554D9EF9E58
:1008300041750CDAEF9E496B4A6B4B6B4E6B4F6BFD
:10084000506B4ED8B4D9030E3DD91DEF02F0020E05
:100850000401465D02E18AEF02F0466B595104E162
:1008600028D98C0EEF6E1200596B120034DA33D98E
:10087000EF50400B01E0010EDF6E04014175080EE0
:10088000365D08E122C46EFF6E5002E0100E01D00A
:10089000040E366F460513E11ED938D9FBDD020E72
:1008A0000401455D03E117D9840E07D0DF5003E151
:1008B00012D9C80E02D00FD9880EEF6E0FD04EAFEE
:1008C0000CD05151521107E005D052C4FAFF040177
:1008D0005151F96EFADF04014E9F466BE55205D186
:1008E00004012051600BE842E842E842E842E84255
:1008F000000901E0120021510C0A45E00B0A3FE01B
:100900000C0A31E0010A22E00B0A1EE0020A1CE098
:10091000030A18E0080A10E0010A0CE00F0A08E0D8
:10092000030A01E012000401498F080E366F12001D
:1009300027EF03F0EEEF02F00401370E476F040ECD
:10094000486F0CD064EF03F0C4EF04F024510401AD
:10095000476F486B380E4727040E48234981010E24
:100960004A6F498F12000401498F04012451EA6A39
:10097000380FE96E040EEA2222C4EFFF120017D9E5
:10098000020E62EF05F01200ABD8050EE12604015D
:10099000220510E120511F0B00090CE10401498FD1
:1009A000030E0401215D04E10401010E556F02D024
:1009B0000401556B0401225101E074D020511F0B3A
:1009C000020870E124510F0B00096CE024510F0B59
:1009D000010868E3200E0401365D64E1498F0401DB
:1009E00024BF04D05FD9DDD8E8D803D060D9D9D8E6
:1009F000E8D8EA22020EEFCFDBFF21D9010B03E199
:100A0000000EDF9401D0DF8424BF02D04BD901D087
:100A10004ED9EA22DECFEEFFDDCFEDFF030E215DE2
:100A20000CE14DD907E024BF02D0C7D801D0C9D806
:100A3000EA22EF82840E80D935D0DF7440D906E0F7
:100A400045D8EF9E43D8EF8C1CD902D03FD8EF8C0D
:100A5000DF74F5D8020B02E132D90DE0040124BFA6
:100A600002D0ABD801D0ADD8EA22EF923B0E0B6E8C
:100A700054D907D902D03B0E50D9040124510F0B91
:100A80000C6A700F0B6E0F0E0C22030E0BC0DBFFF7
:100A9000040E0CC0DBFF030EDBCFE9FF040EDBCF3F
:100AA000EAFFEF90050EE15C02E2E16AE552E16ED9
:100AB0001CD037D9DCD826EF06F0FE0EEA6ADB340C
:100AC0006EEF06F0E66EE66A7CEF06F0DECFE9FF39
:100AD000DDCFEAFF120041C4E9FF42C4EAFF120081
:100AE000D9CFE6FFE1CFD9FF1200E552E7CFD9FF1A
:100AF000120024510F0BE96EEA6AD890E936EA3603
:100B0000120039C4E9FF3AC4EAFF120010D9280ED6
:100B1000EE6E040EED6E1200FE0EEA6ADB3475EF27
:100B200006F0FD0EDB50E8240D6EFE0EDB50040DCA
:100B3000F3500D241200DF50040DF3CFE9FFF4CF82
:100B4000EAFF000EE926040EEA22EE6AEE6AEE6A79
:100B5000EE6ADF2A1200DF50DBD8EA22EF6ADF50AC
:100B6000D2D8EA22EF6ADF2A1200010EE66EE66AA8
:100B7000E66A710EE66E0F0E63EF06F0EA22EE50A3
:100B8000EFCFEAFFE96E1200E66E53C4E9FF54C4EA
:100B9000EAFF532B000E5423E552E750EF6EDF06B9
:100BA0001200EA22EECFDEFFEDCFDDFF1200000ED5
:100BB000E66EE66AE66EE66A120024510F0B83EFDA
:100BC00006F024510F0B88EF06F00C220BC0DEFF5D
:100BD0000CC0DDFF1200DF500B6E0C6A080E0B5CC0
:100BE000000E0C581200FE0EDBCFE6FFEFEC01F01A
:100BF000E552E5521200F7220900F5CF47F40A004A
:100C0000F5CF48F41200160E6F6E9F0E6B6E7B0EC2
:100C1000696E1200010EE66EE66A000EE66EE66A86
:100C20001200F76A4725F66E4851F72208001200B5
:100C30002251F66EF76AD890F636F7361200D95080
:100C4000020FE96EDACFEAFFEF5012003BC4E9FF72
:100C50003CC4EAFF1200040DF3CF0BF0F4CF0CF00C
:100C6000000E0B26040EB1DF840E9CEF06F05FD859
:100C7000200EEE6E040EED6E120032DF020EE12643
:100C80001200020EE66EE66ADECFE6FFDDCFE6FF7B
:100C9000050E62EF05F00DDF8C0EEF6E1CDF840E8B
:100CA000EF6E120026DF3D0EE926040E120021DF52
:100CB000410EE926040E120000DFBEEF05F006DF4C
:100CC000EF50800B1200E66E05EC0EF00B6E050E79
:100CD000E15E0B50120004DFE6521200FE0BEA3612
:100CE000E96E410EE926040E1200FE0BEA36E96EAB
:100CF0003D0EE926040E1200CAEC06F00B6E060E3D
:100D0000E15E0B501200EA6A5C0FE96E040E1200FD
:100D1000EA6A5A0FE96E040E1200D8DEE850EF16A8
:100D2000120094DFEE52080EEF6E26EF06F0020E70
:100D3000E926000EEA221200C9DEE850EF12120086
:100D400012001200120016EF07F012000401550500
:100D500020E1040156051DE1A09AF3DF6D92040124
:100D6000566B0401100E7E6F0E0E7F6F7E07000E15
:100D70007F5B7E517F11FAE16D84080E7E6F070E56
:100D80007F6F7E07000E7F5B7E517F11FAE16D94CD
:100D9000A08A1200D9CFE6FFE1CFD9FFFD0EDBCF4D
:100DA00006F0FE0EDBCF07F0050E061801E1075036
:100DB00038E0E868061802E17F0E071830E0030EFD
:100DC000061801E1075029E0020E061801E107505C
:100DD00022E0010E061801E107501AE0740E061811
:100DE00001E1075013E0750E061801E107500CE011
:100DF000730E061801E1075005E0720E061811E1A6
:100E000007500FD09FDF0DD09BDF0BD09ADF09D0AA
:100E100001EC0BF006D099DF04D095DF02D00DEC89
:0C0E20000BF0010EE552E7CFD9FF1200E5
:040E2C00040120514C
:100E30001F0B010801E01200245101E01200060E10
:100E4000215D1EE12351230A1BE0010A0CE0030A85
:100E500017E10401370514E10401620E476F1C0E0F
:100E6000486F090E09D0040137050AE104019D0EFF
:100E7000476F1C0E486F1C0E4A6F4B6BC00E496FBC
:100E800004012051600BE842E842E842E842E842AF
:100E9000010801E0120021510B0A26E0080A19E0BE
:100EA000090A11E0080A05E00B0A23E0080A21E01C
:100EB000120004016A0E476F000E486F010E4A6F60
:100EC0004B6BC10E0FD00401800E496F23C46AF032
:100ED000120004016B0E476F000E486F010E4A6F3F
:100EE0004B6B810E496F12000401800E496F22C4C2
:040EF0006BF0120091
:0C0EF400DACFE4FFE2CFDAFFE9CFE4FF41
:100F0000EACFE4FFF6CFE4FFF7CFE4FFF5CFE4FF4D
:100F1000F3CFE4FFF4CFE4FFFACFE4FF00EE00F0FC
:100F20000B0EE80403E3EECFE4FFFBD700EE0BF07B
:100F3000040EE80403E3EECFE4FFFBD7E65266ECD1
:100F400000F0E55200EE0EF0040EE80403E3E5CFF6
:100F5000EDFFFBD700EE0AF00B0EE80403E3E5CF4C
:100F6000EDFFFBD7E5CFFAFFE5CFF4FFE5CFF3FFC9
:100F7000E5CFF5FFE5CFF7FFE5CFF6FFE5CFEAFFD9
:100F8000E5CFE9FFE5CFDAFF1100D8CFE4FFE0CFEE
:100F9000E4FFE46EDACFE4FFE652E552E5CFDAFF94
:0C0FA000E550E5CFE0FFE5CFD8FF1000E2
:040FAC0013EE00F050
:100FB00023EE00F0F86A0A9C8BEC0DF003EC08F0CD
:080FC0000FEC08F0FBD7120052
:06100000D6EF07F012001C
:021006001200D6
:061008007AEF07F0120070
:02100E000000E0
:03101000000000DD
:06101800C5EF07F0120015
:02101E0004D8F4
:1010200097EC01F047DAFED70F0EC11233D816EF56
:1010300000F0040104016E51010B02E08A8601D028
:101040008A96040104016E51020B02E08A8801D0E5
:101050008A9889848992E6680F0EE66E66C4E6FF78
:1010600067C4E6FF4BD8E552E552E552E552898266
:10107000898289946AC4E6FF6BC4E6FF68C4E6FF10
:1010800069C4E6FF3BD8E552E552E552E552898452
:1010900000001200E30E8A168C6AF80E8D16E30E1D
:1010A0009316F80E961695689494E10E92168D8418
:1010B0008A84898289848996899804016E916E93C5
:1010C000D00E666F070E676F6E956E876E996869B2
:1010D00069696A696B69ADDF010E04016C6F6D6B44
:1010E000CD96CF0ECD143009CD6ECD92CD800DDBD7
:1010F0000401796B7A6B7B6B7C6B1200F4DA060E61
:10110000E126FD0EDBCFDEFFDBCFDDFFFB0EDBCF0D
:1011100006F0FC0EDBCF07F0020E06C0DBFF030E6D
:1011200007C0DBFFEADAF8DA1BE1020EDBCF0DF0D5
:10113000030EDBCF0EF0F7DA05E0D8900C320B325D
:10114000E804FBE1010E0B14E8B08988E8A0899857
:1011500089968986040EDB06050EE5E2DB06E3D7F9
:10116000CCDADADA19E1DECF0DF0DDCF0EF0DBDA22
:1011700005E0D8900C320B32E804FBE1010E0B14B1
:10118000E8B08988E8A0899889968986040EDB06EC
:10119000050EE7E2DB06E5D7060EE15C02E2E16A56
:1011A000E5529CD2A0DA020EE126DE68DD68ADDAF7
:1011B00004016E510C0BE842E842E8B2FC09000958
:1011C00024E16EB911D08150010B05E037DA01E25C
:1011D000DB0646DAF8E38150010B42E12FDA01E247
:1011E000DB063EDA3DE2F7D78150010B05E126DA56
:1011F00001E2DB0635DAF8E38150010B31E01EDA5B
:1012000001E2DB062DDA2CE2F7D76E510C0BE84237
:10121000E842E8B2FC09010823E16EB911D0805020
:10122000200B05E00BDA01E2DB061ADAF8E3805066
:10123000200B16E103DA01E2DB0612DA11E2F7D73E
:101240008050200B05E1FAD901E2DB0609DAF8E368
:101250008050200B05E0F2D901E2DB0601DAF8E369
:1012600007EC00F08B94020EE15C02E2E16AE552C9
:1012700035D239DA130EE12604018029DF6ED95008
:10128000010FE96EDACFEAFF800EEE6E040EED6E0E
:10129000D950030FE96EDACFEAFFC00EEE6E040EEE
:1012A000ED6E0401010E7D6F04018051900A01E191
:1012B000F5D0A00A01E1DAD0500A61E0200A5BE033
:1012C000400A44E0020A01E0EDD0010EF36E050E83
:1012D000F3CFDBFF060EDB6A0A0EF36E070EF3CFC9
:1012E000DBFF080EDB6A090EDB6E0A0EDB6A100EEE
:1012F000F36E0B0EF3CFDBFF0C0EDB6A400EF36ECA
:101300000D0EF3CFDBFF0E0EDB6AE1D9EE52050EB8
:10131000DBCFEEFF060EDBCFEEFF070EDBCFEEFFDF
:10132000080EDBCFEEFF090EDBCFEEFF0A0EDBCFA0
:10133000EEFF0B0EDBCFEEFF0C0EDBCFEEFF0D0E44
:10134000DBCFEEFF0E0EDBCFEEFFA8D0B2D9EECF93
:1013500066F4EECF67F4EECF68F4EECF69F4EECF2B
:101360006AF4EECF6BF4EECF6CF4EECF6DF4EFCF0A
:101370006EF45FDE93D01FD90401C16F8FD0DAD92C
:1013800098D9EF50780BE842E842E842E8B6F00915
:10139000010A2AE0010A64E18CD9EF50070BE8B496
:1013A000F809020A09E0030A04E0010A07E18D9046
:1013B00001D08D808D9202D08D908D82F29E8D9481
:1013C00004016C516D1104E1EDDE40EC0DF009D02B
:1013D000E9DE6CC4E6FF6DC4E6FF61EC0CF0E5529B
:1013E000E5528D84F28E3CD0110EDB6A120EDB6A60
:1013F0007FD92BD90BE265D901E3DB2A45D9000E51
:10140000E926060E48D9F5E3DB2AF3D771D91DD9B1
:101410000BE257D901E3DB2A37D9000EE926050E86
:101420003AD9F5E3DB2AF3D763D90FD90BE249D9CF
:1014300001E3DB2A29D9000EE926020E2CD9F5E3B7
:10144000DB2AF3D755D901D90BE23BD901E3DB2ADB
:101450001BD9000EE926010E1ED9F5E3DB2AF3D7CE
:1014600007EC00F08B84DFCF00F618D063D9F29E32
:1014700099DE8D9404016C516D1103E1CAEC0CF0FE
:1014800008D06CC4E6FF6DC4E6FFC6EC0BF0E55275
:10149000E552F28E8D8407EC00F08B8418D9DFCFF3
:1014A000EFFF02D014D9EF6A130EE15C02E2E16AA9
:1014B000E55214D1200E0401E76E3619E8AE02D0D1
:1014C000E73402D0E750365D03E36D50020B03E0D2
:1014D00004017D6B120004017D51020A23E0030A1E
:1014E00014E0010A01E0120079517A1102E1000EC4
:1014F00008D079C4E9FF7AC4EAFFEF50800B01E01D
:10150000010E000957E139EF09F07B517C1102E12E
:10151000000E03D016D901E0010E00094BE1A6D858
:101520007FD812D07B517C1102E1000E03D009D983
:1015300001E0010E00093EE1040E0401655D07E1D2
:101540006FD80401646B656B04017D6B12006551FB
:10155000030A15E0010A0EE0030A07E0010A23E18D
:10156000A1D8000F0B6E060E0ED09CD8000F0B6E8C
:10157000050E09D097D8000F0B6E020E04D092D83A
:10158000000F0B6E010E0C220BC0E6FF0CC0E6FF35
:10159000C00EE66E040EE66EDAEC0DF00D6E060E71
:1015A000E15E0D5063D80401642B040E645D02E11A
:1015B000646B652B120097D8E6528A948D94835001
:1015C000DF6E8A848D84DF50E552E552E7CFD9FF84
:1015D00012006DB212000401365101E1120036050D
:1015E00001E11200020E365D01E11200040E365DCB
:1015F00001E11200100E365D01E11200200E365D91
:1016000012001E0EE66E010EE66EF4EC00F0E552DE
:10161000E55206D804017D6B120004017D6B1200B7
:10162000400EE66E800EE66E040EE66EE66A010E71
:101630008FD8F3CF79F4F4CF7AF41200DFCF0BF028
:10164000DF06010EDBCF0CF012000F0EDBCF0BF02C
:10165000100EDBCF0CF0000E0B5C010E0C581200CC
:10166000000ED8800B54000E0C541200400EE66E93
:10167000C00EE66E040EE66E010EE66E69D8F3CF7C
:101680007BF4F4CF7CF412000F0EDBCFE9FF100ED9
:10169000DBCFEAFF1200EA220BC0EFFF0F0EDB2ABE
:1016A000100E1200400EE66EE66A6403F3500C6AF8
:1016B0001200010EDBCFE9FF020EDBCFEAFFEE5294
:1016C0001200110EDBCF0BF0DB2A120E1200030EFC
:1016D000DBCFE9FF040EDBCFEAFF1200E16EE5523B
:1016E000E7CFD9FF1200D9CFE6FFE1CFD9FF120033
:1016F0000F0EDB6A100EDB6A12000B0EF36E040E87
:10170000F3CFDBFF050EDB6A1200F00EBD140209F9
:10171000BD6EBE68BF681200040E050EDBCF0CF074
:10172000800E0C141200040EDB500DC00BF00EC026
:101730000CF012000401646B656B0401020E7D6FF6
:1017400012007BC4E9FF7CC4EAFFEF50800B12005B
:10175000E66E18EC01F00B6E050EE15E0B50120008
:101760008B849494000EBD6E1200BD821200BD9257
:101770008B841200BD928B941200602B612B602F22
:10178000BFEF0BF0612FBFEF0BF01200FF0EE3CFA6
:1017900063F0FE0EE3CF64F08D908D928A9400008A
:1017A00000000000000000017F0E626F06EE00F0F6
:1017B00083508A848A94EE6E8D90000000000000B1
:1017C0000000000083508A848A94EE6E8D800000B1
:1017D000000000000000000063C061F064C060F021
:1017E000BDEC0BF0622FD8EF0BF07F0E626F05EEB1
:1017F00000F083508A848A94EE6E8D900000000081
:1018000000000000000083508A848A94EE6E8D8070
:101810000000000000000000000063C061F064C030
:1018200060F0BDEC0BF0622FF9EF0BF07F0E626FF2
:1018300002EE00F083508A848A94EE6E8D90000050
:10184000000000000000000083508A848A94EE6E3D
:101850008D800000000000000000000063C061F007
:1018600064C060F0BDEC0BF0622F1AEF0CF07F0E3D
:10187000626F01EE00F083508A848A94EE6E8D9040
:101880000000000000000000000083508A848A9459
:10189000EE6E8D800000000000000000000063C0BC
:1018A00061F064C060F0BDEC0BF0622F3BEF0CF018
:1018B0008A841200000E616F000E606FBDEC0BF0A9
:1018C0001200FF0EE3CF66F0FE0EE3CF67F08A94BE
:1018D00000000000000000000001000E656F06EE31
:1018E00000F083508A848A94EE6E000000000000AD
:1018F0000000000066C061F067C060F0BDEC0BF056
:10190000652F71EF0CF00001000E656F05EE00F021
:1019100083508A848A94EE6E00000000000000006C
:10192000000066C061F067C060F0BDEC0BF0652F91
:1019300088EF0CF00001000E656F02EE00F083509E
:101940008A848A94EE6E000000000000000000000F
:1019500066C061F067C060F0BDEC0BF0652F9FEFD3
:101960000CF00001000E656F01EE00F083508A84D8
:101970008A94EE6E0000000000000000000066C0C7
:1019800061F067C060F0BDEC0BF0652FB6EF0CF0B6
:101990008A8412008D908D928A94000000000000CD
:1019A00000000001800E686F06EE00F083508A840C
:1019B0008A94EE6E8D900000000000000000000090
:1019C00083508A848A94EE6E8D80000000000000AF
:1019D00000000000682FD6EF0CF0800E686F05EE57
:1019E00000F083508A848A94EE6E8D90000000008F
:1019F00000000000000083508A848A94EE6E8D807F
:101A000000000000000000000000682FF1EF0CF063
:101A1000800E686F02EE00F083508A848A94EE6E26
:101A20008D900000000000000000000083508A84B8
:101A30008A94EE6E8D80000000000000000000001F
:101A4000682F0CEF0DF0800E686F01EE00F08350F0
:101A50008A848A94EE6E8D900000000000000000E1
:101A6000000083508A848A94EE6E8D80000000000E
:101A7000000000000000682F27EF0DF08A8412009C
:101A80008A9400000000000000000001000E696F51
:101A900006EE00F083508A848A94EE6E0000692F6F
:101AA0004AEF0DF00001000E696F05EE00F0835063
:101AB0008A848A94EE6E0000692F57EF0DF00001C2
:101AC000000E696F02EE00F083508A848A94EE6EF5
:101AD0000000692F64EF0DF00001000E696F01EE48
:101AE00000F083508A848A94EE6E0000692F71EFB3
:101AF0000DF08A841200000EF36E00EE00F0080E66
:101B000001D81200EA6002D0EE6AFCD7F350E96017
:061B10001200EE6AFCD792
:0A1B16001E0EF66E000EF76E000EB4
:101B2000F86E04010900F550746F0900F550756FE7
:101B300003E1746701D03DD00900F5506F6F0900D3
:101B4000F550706F0900F550716F09000900F550EC
:101B5000E96E0900F550EA6E090009000900F55028
:101B6000726F0900F550736F09000900F6CF76F423
:101B7000F7CF77F4F8CF78F46FC4F6FF70C4F7FFAF
:101B800071C4F8FF0401725302E1735307E00900C6
:101B9000F550EE6E7207F8E27307F9D776C4F6FFD8
:101BA00077C4F7FF78C4F8FF04017407000E755B73
:041BB000BFD7120089
:0C1BB400D9CFE6FFDACFE6FFFA0EE3CF50
:101BC000D9FFFB0EE3CFDAFFFC0EE3CFE9FFFD0EFA
:101BD000E3CFEAFFE9CFF3FFEACFF4FFF80EE350DB
:101BE00003E1F90EE35008E0F80EE30602E2F90E15
:101BF000E306DECFEEFFF2D7FF0EE3CFDAFFE552CA
:101C0000FF0EE3CFD9FFE5521200FE0EE3CFE9FF4E
:101C1000FF0EE3CFEAFFE9CFF3FFEACFF4FFFB0EBD
:101C2000E35003E1FC0EE35009E0FB0EE30602E2A1
:0E1C3000FC0EE306FD0EE350EE6EF1D712003F
:021C3E00120191
:101C4000000200000008ADDEEFBE0200010200014C
:101C500009022900010100C0FA0904000002030082
:101C60000000092111010001221C00070581034029
:101C70000001070501034000010403090408036D86
:101C800000720075001803530061006D0070006C55
:101C9000006500530063006F00700065000600FFE0
:101CA0000901A10119012940150125407508954038
:101CB0008100190129409100C0501C791C7D1C85B0
:011CC0001C07
:020000040030CA
:0100000024DB
:010001000EF0
:0100020038C5
:010003001EDE
:010005008179
:010006008178
:010008000FE8
:01000900C036
:01000A000FE6
:01000B00E014
:01000C000FE4
:01000D0040B2
:00000001FF
