:020000040000FA
:06000000D9EF07F0120029
:0600080004EF08F01200F5
:02000E009D94BF
:04001000BD6A1200B3
:060018000CEF08F01200DD
:02001E000100DF
:0C0020000E100000F500000005000000BC
:04002C006BEC06F083
:10003000A09A6A6A686A706AB5EC05F003EC06F08B
:10004000DF6AEBEC05F003E29BEC05F0FAD76D8C70
:100050006E6A6D986D9C68A607D068960401496B1E
:100060004E6B4F6B506BF7D70401010E606F616FE1
:10007000626B636B566BDF6A020EDF5C11E2EA6A49
:10008000DF346EEC06F0EA22EE6AED6AEA6ADF34EB
:1000900075EC06F0EA22EE6AED6AABEC05F0ECD7FF
:1000A0000401080E416F040E426F160E706E0401BB
:1000B000200E026F040E036F080E016F840E006F96
:1000C0000401376B366BE55275EF05F06BEC06F00B
:1000D0000401360507E16DBA05D0686A6980698850
:1000E000020E366F6850040B05E06950040B02E005
:1000F00068943FDB6DB245D06850010B09E0695050
:10010000010B06E093DFA08A0401040E366F6890AD
:100110006850100B05E06950100B02E020DB689876
:1001200068AC0FD069AC05D00AEC06F0730E62EC37
:1001300005F0689C04015E5101E05E075E5101E13B
:1001400009D96850200B04E06950200B01E0F7DA70
:100150006850020B0BE06950020B08E00AEC06F055
:10016000E6687F0EE66E7CEC06F06A6A040E040117
:10017000E76E3619E8AE02D0E73402D0E750365DBC
:1001800002E2A19A2ED069A62BD0DF6A040EDF5CB2
:1001900027E268A625D06CCF57F404015751780B9D
:1001A000E842E842E842586F689657B504D0585183
:1001B00083EC06F003D0585188EC06F0EA22EF7089
:1001C000585102E1E2DA0AD0000EE66EE66A570EF6
:1001D000E66E040EE66E720E62EC05F0DF2AD6D7EC
:1001E000A19AE55275EF05F03DEC06F0FD0EDBA49B
:1001F00003D0E66AF3EC05F0FD0EDBA204D0010E9D
:10020000E66EF3EC05F0FE0EDB500C6A700F0B6E21
:100210000F0EE5EC05F066EC05F0FD0EDBCFEFFF11
:10022000020EE15C02E2E16AE552E16E75EF05F073
:100230003DEC06F0FD0EDB5003E05DEC05F002D076
:100240008CEC05F0D1EC05F0D9CFE9FFDACFEAFF6D
:10025000EE50ED1003E1F36AF46A28D066EC05F085
:1002600097EC06F0FB0EDBCFEEFFFC0EDBCFEDFFD5
:1002700066EC05F0EE52FA0EDBCFEFFF400E8DEC90
:1002800006F0880E9CEC06F0FD0EDB5003E05DEC02
:1002900005F002D08CEC05F0EA22EF74DECF0BF013
:1002A000DDCF0CF00BC0F3FF0CC0F4FF020EE15CDD
:1002B00002E2E16AE552E16E75EF05F03DEC06F011
:1002C000FE0EDB5003E14BEC06F009D091EC05F09B
:1002D0002BEC06F091EC05F0010F2BEC06F0020E72
:1002E000E15C02E2E16AE552E16E75EF05F070EC67
:1002F00005F06DA816D05CEC06F0400EEE16EE6A26
:10030000EE6AEE6A5CEC06F0EE7CD7DBEA22EF7474
:10031000400E0B6E5CEC06F00B50EF165CEC06F03A
:10032000EF7CE3D36D6A696A0401366B1200040145
:1003300036510FE16D6A696A03EC06F0D08EA28A2D
:10034000A08AF28E6DB602D06D86FCD70401010E34
:10035000366F12000401605122E1010E606F61519D
:100360001EE1010E616F020E465D07E1B4DBEE5245
:10037000EF6AB1DBC80EEF6E1200460510E1596B53
:10038000C0DBEE52080EEF6EBCDB37EC06F0B9DBDB
:10039000840EEF6E010E596F8CDB800EEF6E120033
:1003A0000401626B636B020E465D06E191EC06F0A0
:1003B000ADDB26EC06F010D04A510401265D0401A5
:1003C0004B510401275904E226C44AF427C44BF4D4
:1003D00061D881DB9BDB7FDBC80EEF6E12003DEC4A
:1003E00006F0000EDE6E040EDD6E9BDB040DF4CF16
:1003F0000CF0D9CFE9FFDACFEAFFF350EE260C502C
:10040000ED2264DBEF9EFD0EDB5002E185DB01D0C7
:1004100054DBEA22DECFEEFFDDCFEDFF57DBEF9CB2
:1004200055DB040EE926000EEA22EF8C020EE15C99
:1004300002E2E16AE552E16E58D36D98040149BFCA
:100440000DD04EAF09D0020E466F635101E1A8DF17
:100450000401616B606B12004BEF06F0040120AFEA
:100460000DD00401010E466F625101E199DF0401D4
:10047000616B606B5F510DE1AAEF01F00401020EA8
:10048000466F17DB840EEF6E616B606B5F5101E1AD
:1004900061DF12006BEC06F0080EDF6E04014A5DAE
:1004A000000E4B590AE24AC4DFFF455102E1010E3A
:1004B00003D0450502E1020E456FDF500C6AE8509B
:1004C0004A5D4A6F0C504B594B6F05DBEE52DFCF44
:1004D000EFFF280E536F040E546F49B10DD0DF505B
:1004E00017E047C4F6FF48C4F7FF472B000E482328
:1004F0000800F55049DBF3D7DF500AE047C4E9FFB5
:1005000048C4EAFF472B000E4823EF503DDBF4D7E9
:10051000E552EBD2B2DBF5DAEE52EFCFDFFFDFCF01
:100520000BF00B5004014F5D000E505902E24FC416
:10053000DFFFDF500B6E0C6AE8504F5D4F6F0C50C1
:100540005059506F010EDB6ADF50F36E010EDBCFA6
:10055000F4FFF350F45C16E2010EDB50EA6A280F58
:10056000E96E040EEA22EF50E66E4CC4E9FF4DC47A
:10057000EAFF4C2B000E4D23E552E750EF6E010EC3
:10058000DB2AE2D7000ED8804F55000E50550DE201
:10059000C8DBBCDAB6DAEF50400B03E157DBC80E1C
:1005A00002D054DB880EEF6E12D083DA840EEF6E29
:1005B0005151521107E005D052C4FAFF04015151C4
:1005C000F96EFADF04014E9F5F5101E1C3DE020EB6
:1005D000E15C02E2E16AE552E16E87D27CDB040174
:1005E000498FC3DADF6AF7DA02E2A5DAFCD76D8C4D
:1005F000DF6A020EDF5C02E2AEDAFBD7010EE66EC6
:10060000E66AE66A380EE66E040E5DDB6D9C040158
:10061000080E416F040E426F000E396F040E3A6FE0
:1006200039C43BF43C6F22C437F4375102E1100E59
:100630000BD0010EE66EE66A370EE66E040EE66E2D
:10064000010E40DA0401200E366FE5524ED2800EC4
:100650000401205D38E10401C00E496F04012351FB
:10066000030A1AE0010A09E0030A2BE10401300E33
:10067000476F0F0E486F120E1ED0DADAA90EF6265B
:100680000F0EB9DA020E0401CCDAF5CF4AF4030EEC
:10069000C8DAF5CF4BF41200030E225D0FE2C8DA80
:1006A000AB0EF6260F0EA7DA47C4F6FF48C4F7FFD5
:1006B0000800F55004014A6F4B6B12000401496BAE
:1006C00012000401496B1200D8DA0401286B296B6F
:1006D00020511F0B020A11E0030A0CE0010A1EE17F
:1006E0000401498F040128810401550517E1040123
:1006F000288314D00401498F11D00401498F0401CB
:1007000024BF02D0CFDA01D0D2DA4BDAD8DA06E051
:10071000DDD9EF50040B02E0010E286F040149AF50
:1007200007D0280E476F040E486F4981020E4A6FAA
:10073000020EE15C02E2E16AE552E16ED6D170A000
:100740000CD0DFD9EF50800807E1C5D9EF508408FD
:1007500003E1D7D98C0EEF6E7090689A120069840D
:1007600068986D820401010E566F21DA750E62EFF2
:1007700005F00401566B1BDA740EA4D96D926994CE
:1007800068A402D06894FCD71200A5DA04012D0EEB
:100790005E6FFD0E571539E17E0E5715E8407F0B51
:1007A000040DF3CF39F4F4CF3AF4000E3927040ED8
:1007B0003A2339C43BF43AC43CF43B75A2D9EF5018
:1007C0003C0BE842E8420D081EE1DF6A080EDF5CE0
:1007D00016E297D9020EE926000ED0D9EF50E66E48
:1007E000DF50EA6A200FE96E040EEA22E552E75074
:1007F000EF6E87D99CDAEE2AEF22DF2AE7D781D97C
:1008000036DA0AD807D023D805D0FD0E57150408CC
:1008100001E12CD8E55269D10401456B5F6B626B35
:10082000636B596B466B57D9EF9E417554D9EF9E58
:1008300041750CDAEF9E496B4A6B4B6B4E6B4F6BFD
:10084000506B4ED8B4D9030E3DD91DEF02F0020E05
:100850000401465D02E18AEF02F0466B595104E162
:1008600028D98C0EEF6E1200596B120034DA33D98E
:10087000EF50400B01E0010EDF6E04014175080EE0
:10088000365D08E122C46EFF6E5002E0100E01D00A
:10089000040E366F460513E11ED938D9FBDD020E72
:1008A0000401455D03E117D9840E07D0DF5003E151
:1008B00012D9C80E02D00FD9880EEF6E0FD04EAFEE
:1008C0000CD05151521107E005D052C4FAFF040177
:1008D0005151F96EFADF04014E9F466BE55205D186
:1008E00004012051600BE842E842E842E842E84255
:1008F000000901E0120021510C0A45E00B0A3FE01B
:100900000C0A31E0010A22E00B0A1EE0020A1CE098
:10091000030A18E0080A10E0010A0CE00F0A08E0D8
:10092000030A01E012000401498F080E366F12001D
:1009300027EF03F0EEEF02F00401370E476F040ECD
:10094000486F0CD064EF03F0C4EF04F024510401AD
:10095000476F486B380E4727040E48234981010E24
:100960004A6F498F12000401498F04012451EA6A39
:10097000380FE96E040EEA2222C4EFFF120017D9E5
:10098000020E62EF05F01200ABD8050EE12604015D
:10099000220510E120511F0B00090CE10401498FD1
:1009A000030E0401215D04E10401010E556F02D024
:1009B0000401556B0401225101E074D020511F0B3A
:1009C000020870E124510F0B00096CE024510F0B59
:1009D000010868E3200E0401365D64E1498F0401DB
:1009E00024BF04D05FD9DDD8E8D803D060D9D9D8E6
:1009F000E8D8EA22020EEFCFDBFF21D9010B03E199
:100A0000000EDF9401D0DF8424BF02D04BD901D087
:100A10004ED9EA22DECFEEFFDDCFEDFF030E215DE2
:100A20000CE14DD907E024BF02D0C7D801D0C9D806
:100A3000EA22EF82840E80D935D0DF7440D906E0F7
:100A400045D8EF9E43D8EF8C1CD902D03FD8EF8C0D
:100A5000DF74F5D8020B02E132D90DE0040124BFA6
:100A600002D0ABD801D0ADD8EA22EF923B0E0B6E8C
:100A700054D907D902D03B0E50D9040124510F0B91
:100A80000C6A700F0B6E0F0E0C22030E0BC0DBFFF7
:100A9000040E0CC0DBFF030EDBCFE9FF040EDBCF3F
:100AA000EAFFEF90050EE15C02E2E16AE552E16ED9
:100AB0001CD037D9DCD826EF06F0FE0EEA6ADB340C
:100AC0006EEF06F0E66EE66A7CEF06F0DECFE9FF39
:100AD000DDCFEAFF120041C4E9FF42C4EAFF120081
:100AE000D9CFE6FFE1CFD9FF1200E552E7CFD9FF1A
:100AF000120024510F0BE96EEA6AD890E936EA3603
:100B0000120039C4E9FF3AC4EAFF120010D9280ED6
:100B1000EE6E040EED6E1200FE0EEA6ADB3475EF27
:100B200006F0FD0EDB50E8240D6EFE0EDB50040DCA
:100B3000F3500D241200DF50040DF3CFE9FFF4CF82
:100B4000EAFF000EE926040EEA22EE6AEE6AEE6A79
:100B5000EE6ADF2A1200DF50DBD8EA22EF6ADF50AC
:100B6000D2D8EA22EF6ADF2A1200010EE66EE66AA8
:100B7000E66A710EE66E0F0E63EF06F0EA22EE50A3
:100B8000EFCFEAFFE96E1200E66E53C4E9FF54C4EA
:100B9000EAFF532B000E5423E552E750EF6EDF06B9
:100BA0001200EA22EECFDEFFEDCFDDFF1200000ED5
:100BB000E66EE66AE66EE66A120024510F0B83EFDA
:100BC00006F024510F0B88EF06F00C220BC0DEFF5D
:100BD0000CC0DDFF1200DF500B6E0C6A080E0B5CC0
:100BE000000E0C581200FE0EDBCFE6FFEFEC01F01A
:100BF000E552E5521200F7220900F5CF47F40A004A
:100C0000F5CF48F41200160E6F6E9F0E6B6E7B0EC2
:100C1000696E1200010EE66EE66A000EE66EE66A86
:100C20001200F76A4725F66E4851F72208001200B5
:100C30002251F66EF76AD890F636F7361200D95080
:100C4000020FE96EDACFEAFFEF5012003BC4E9FF72
:100C50003CC4EAFF1200040DF3CF0BF0F4CF0CF00C
:100C6000000E0B26040EB1DF840E9CEF06F05FD859
:100C7000200EEE6E040EED6E120032DF020EE12643
:100C80001200020EE66EE66ADECFE6FFDDCFE6FF7B
:100C9000050E62EF05F00DDF8C0EEF6E1CDF840E8B
:100CA000EF6E120026DF3D0EE926040E120021DF52
:100CB000410EE926040E120000DFBEEF05F006DF4C
:100CC000EF50800B1200E66E7EEC07F00B6E050E07
:100CD000E15E0B50120004DFE6521200FE0BEA3612
:100CE000E96E410EE926040E1200FE0BEA36E96EAB
:100CF0003D0EE926040E1200A6EC11F00B6E060E56
:100D0000E15E0B501200EA6A5C0FE96E040E1200FD
:100D1000EA6A5A0FE96E040E1200D8DEE850EF16A8
:100D2000120094DFEE52080EEF6E26EF06F0020E70
:100D3000E926000EEA221200C9DEE850EF12120086
:100D4000040120511F0B010801E01200245101E0B1
:100D50001200060E215D1EE12351230A1BE0010A49
:100D60000CE0030A17E10401370514E10401540EF5
:100D7000476F0F0E486F090E09D0040137050AE1CD
:100D800004018D0E476F0F0E486F1C0E4A6F4B6BA0
:100D9000C00E496F04012051600BE842E842E8426E
:100DA000E842E842010801E0120021510B0A26E066
:100DB000080A19E0090A11E0080A05E00B0A23E015
:100DC000080A21E012000401FA0E476F000E486F76
:100DD000010E4A6F4B6BC10E0FD00401800E496F9C
:100DE00023C4FAF012000401FB0E476F000E486F97
:100DF000010E4A6F4B6B810E496F12000401800E89
:080E0000496F22C4FBF012004F
:080E08001E0EF66E000EF76EDF
:100E1000000EF86E00010900F550F06F0900F55062
:100E2000F16F03E1F06701D03DD00900F550EB6FA1
:100E30000900F550EC6F0900F550ED6F090009004D
:100E4000F550E96E0900F550EA6E09000900090045
:100E5000F550EE6F0900F550EF6F09000900F6CF6D
:100E6000F2F0F7CFF3F0F8CFF4F0EBC0F6FFECC000
:100E7000F7FFEDC0F8FF0001EE5302E1EF5307E08A
:100E80000900F550EE6EEE07F8E2EF07F9D7F2C071
:100E9000F6FFF3C0F7FFF4C0F8FF0001F007000E03
:060EA000F15BBFD7120058
:0A0EA600D9CFE6FFDACFE6FFFA0E1F
:100EB000E3CFD9FFFB0EE3CFDAFFFC0EE3CFE9FF70
:100EC000FD0EE3CFEAFFE9CFF3FFEACFF4FFF80E20
:100ED000E35003E1F90EE35008E0F80EE30602E206
:100EE000F90EE306DECFEEFFF2D7FF0EE3CFDAFF17
:100EF000E552FF0EE3CFD9FFE5521200FE0EE3CF1D
:100F0000E9FFFF0EE3CFEAFFE9CFF3FFEACFF4FFFB
:100F1000FB0EE35003E1FC0EE35009E0FB0EE30699
:100F200002E2FC0EE306FD0EE350EE6EF1D7120076
:100F30001201000200000008ADDEEFBE0200010257
:100F4000000109022900010100C0FA0904000002A1
:100F500003000000092111010001221C0007058186
:100F600003400001070501034000010403090408D0
:100F7000036D007200750016036D00720075002786
:100F800000730020006F007300630069000600FF1B
:100F90000901A10119012940150125407508954055
:100FA0008100190129409100C0420F6B0F6F0F772C
:010FB0000F31
:0E0FB20011EE00F021EE00F0F86A0A9C04EC4B
:0E0FC00007F003EC08F0F4EC0EF0FBD7120083
:06100000D9EF07F0120019
:021006001200D6
:0610080098EF0EF012004B
:02100E000000E0
:03101000000000DD
:06101800E3EF0EF01200F0
:02101E008A94B2
:101020000000000000000000040183508A848A94BC
:10103000C06F000000000000000083508A848A9482
:10104000C16F000000000000000083508A848A9471
:10105000C26F000000000000000083508A848A9460
:10106000C36F000000000000000083508A848A944F
:10107000C46F000000000000000083508A848A943E
:10108000C56F000000000000000083508A848A942D
:10109000C66F000000000000000083508A848A941C
:1010A000C76F000000000000000083508A848A940B
:1010B000C86F000000000000000083508A848A94FA
:1010C000C96F000000000000000083508A848A94E9
:1010D000CA6F000000000000000083508A848A94D8
:1010E000CB6F000000000000000083508A848A94C7
:1010F000CC6F000000000000000083508A848A94B6
:10110000CD6F000000000000000083508A848A94A4
:10111000CE6F000000000000000083508A848A9493
:10112000CF6F000000000000000083508A848A9482
:10113000D06F000000000000000083508A848A9471
:10114000D16F000000000000000083508A848A9460
:10115000D26F000000000000000083508A848A944F
:10116000D36F000000000000000083508A848A943E
:10117000D46F000000000000000083508A848A942D
:10118000D56F000000000000000083508A848A941C
:10119000D66F000000000000000083508A848A940B
:1011A000D76F000000000000000083508A848A94FA
:1011B000D86F000000000000000083508A848A94E9
:1011C000D96F000000000000000083508A848A94D8
:1011D000DA6F000000000000000083508A848A94C7
:1011E000DB6F000000000000000083508A848A94B6
:1011F000DC6F000000000000000083508A848A94A5
:10120000DD6F000000000000000083508A848A9493
:10121000DE6F000000000000000083508A848A9482
:10122000DF6F000000000000000083508A848A9471
:10123000E06F000000000000000083508A848A9460
:10124000E16F000000000000000083508A848A944F
:10125000E26F000000000000000083508A848A943E
:10126000E36F000000000000000083508A848A942D
:10127000E46F000000000000000083508A848A941C
:10128000E56F000000000000000083508A848A940B
:10129000E66F000000000000000083508A848A94FA
:1012A000E76F000000000000000083508A848A94E9
:1012B000E86F000000000000000083508A848A94D8
:1012C000E96F000000000000000083508A848A94C7
:1012D000EA6F000000000000000083508A848A94B6
:1012E000EB6F000000000000000083508A848A94A5
:1012F000EC6F000000000000000083508A848A9494
:10130000ED6F000000000000000083508A848A9482
:10131000EE6F000000000000000083508A848A9471
:10132000EF6F000000000000000083508A848A9460
:10133000F06F000000000000000083508A848A944F
:10134000F16F000000000000000083508A848A943E
:10135000F26F000000000000000083508A848A942D
:10136000F36F000000000000000083508A848A941C
:10137000F46F000000000000000083508A848A940B
:10138000F56F000000000000000083508A848A94FA
:10139000F66F000000000000000083508A848A94E9
:1013A000F76F000000000000000083508A848A94D8
:1013B000F86F000000000000000083508A848A94C7
:1013C000F96F000000000000000083508A848A94B6
:1013D000FA6F000000000000000083508A848A94A5
:1013E000FB6F000000000000000083508A848A9494
:1013F000FC6F000000000000000083508A848A9483
:10140000FD6F000000000000000083508A848A9471
:10141000FE6F000000000000000083508A848A9460
:10142000FF6F0000000000000000000183508A846C
:101430008A94606F000000000000000083508A84DE
:101440008A94616F000000000000000083508A84CD
:101450008A94626F000000000000000083508A84BC
:101460008A94636F000000000000000083508A84AB
:101470008A94646F000000000000000083508A849A
:101480008A94656F000000000000000083508A8489
:101490008A94666F000000000000000083508A8478
:1014A0008A94676F000000000000000083508A8467
:1014B0008A94686F000000000000000083508A8456
:1014C0008A94696F000000000000000083508A8445
:1014D0008A946A6F000000000000000083508A8434
:1014E0008A946B6F000000000000000083508A8423
:1014F0008A946C6F000000000000000083508A8412
:101500008A946D6F000000000000000083508A8400
:101510008A946E6F000000000000000083508A84EF
:101520008A946F6F000000000000000083508A84DE
:101530008A94706F000000000000000083508A84CD
:101540008A94716F000000000000000083508A84BC
:101550008A94726F000000000000000083508A84AB
:101560008A94736F000000000000000083508A849A
:101570008A94746F000000000000000083508A8489
:101580008A94756F000000000000000083508A8478
:101590008A94766F000000000000000083508A8467
:1015A0008A94776F000000000000000083508A8456
:1015B0008A94786F000000000000000083508A8445
:1015C0008A94796F000000000000000083508A8434
:1015D0008A947A6F000000000000000083508A8423
:1015E0008A947B6F000000000000000083508A8412
:1015F0008A947C6F000000000000000083508A8401
:101600008A947D6F000000000000000083508A84EF
:101610008A947E6F000000000000000083508A84DE
:101620008A947F6F000000000000000083508A84CD
:101630008A94806F000000000000000083508A84BC
:101640008A94816F000000000000000083508A84AB
:101650008A94826F000000000000000083508A849A
:101660008A94836F000000000000000083508A8489
:101670008A94846F000000000000000083508A8478
:101680008A94856F000000000000000083508A8467
:101690008A94866F000000000000000083508A8456
:1016A0008A94876F000000000000000083508A8445
:1016B0008A94886F000000000000000083508A8434
:1016C0008A94896F000000000000000083508A8423
:1016D0008A948A6F000000000000000083508A8412
:1016E0008A948B6F000000000000000083508A8401
:1016F0008A948C6F000000000000000083508A84F0
:101700008A948D6F000000000000000083508A84DE
:101710008A948E6F000000000000000083508A84CD
:101720008A948F6F000000000000000083508A84BC
:101730008A94906F000000000000000083508A84AB
:101740008A94916F000000000000000083508A849A
:101750008A94926F000000000000000083508A8489
:101760008A94936F000000000000000083508A8478
:101770008A94946F000000000000000083508A8467
:101780008A94956F000000000000000083508A8456
:101790008A94966F000000000000000083508A8445
:1017A0008A94976F000000000000000083508A8434
:1017B0008A94986F000000000000000083508A8423
:1017C0008A94996F000000000000000083508A8412
:1017D0008A949A6F000000000000000083508A8401
:1017E0008A949B6F000000000000000083508A84F0
:1017F0008A949C6F000000000000000083508A84DF
:101800008A949D6F000000000000000083508A84CD
:101810008A949E6F000000000000000083508A84BC
:101820008A949F6F000000000000000000018350B8
:101830008A848A94A06F000000000000000083509A
:101840008A848A94A16F0000000000000000835089
:101850008A848A94A26F0000000000000000835078
:101860008A848A94A36F0000000000000000835067
:101870008A848A94A46F0000000000000000835056
:101880008A848A94A56F0000000000000000835045
:101890008A848A94A66F0000000000000000835034
:1018A0008A848A94A76F0000000000000000835023
:1018B0008A848A94A86F0000000000000000835012
:1018C0008A848A94A96F0000000000000000835001
:1018D0008A848A94AA6F00000000000000008350F0
:1018E0008A848A94AB6F00000000000000008350DF
:1018F0008A848A94AC6F00000000000000008350CE
:101900008A848A94AD6F00000000000000008350BC
:101910008A848A94AE6F00000000000000008350AB
:101920008A848A94AF6F000000000000000083509A
:101930008A848A94B06F0000000000000000835089
:101940008A848A94B16F0000000000000000835078
:101950008A848A94B26F0000000000000000835067
:101960008A848A94B36F0000000000000000835056
:101970008A848A94B46F0000000000000000835045
:101980008A848A94B56F0000000000000000835034
:101990008A848A94B66F0000000000000000835023
:1019A0008A848A94B76F0000000000000000835012
:1019B0008A848A94B86F0000000000000000835001
:1019C0008A848A94B96F00000000000000008350F0
:1019D0008A848A94BA6F00000000000000008350DF
:1019E0008A848A94BB6F00000000000000008350CE
:1019F0008A848A94BC6F00000000000000008350BD
:101A00008A848A94BD6F00000000000000008350AB
:101A10008A848A94BE6F000000000000000083509A
:101A20008A848A94BF6F0000000000000000835089
:101A30008A848A94C06F0000000000000000835078
:101A40008A848A94C16F0000000000000000835067
:101A50008A848A94C26F0000000000000000835056
:101A60008A848A94C36F0000000000000000835045
:101A70008A848A94C46F0000000000000000835034
:101A80008A848A94C56F0000000000000000835023
:101A90008A848A94C66F0000000000000000835012
:101AA0008A848A94C76F0000000000000000835001
:101AB0008A848A94C86F00000000000000008350F0
:101AC0008A848A94C96F00000000000000008350DF
:101AD0008A848A94CA6F00000000000000008350CE
:101AE0008A848A94CB6F00000000000000008350BD
:101AF0008A848A94CC6F00000000000000008350AC
:101B00008A848A94CD6F000000000000000083509A
:101B10008A848A94CE6F0000000000000000835089
:101B20008A848A94CF6F0000000000000000835078
:101B30008A848A94D06F0000000000000000835067
:101B40008A848A94D16F0000000000000000835056
:101B50008A848A94D26F0000000000000000835045
:101B60008A848A94D36F0000000000000000835034
:101B70008A848A94D46F0000000000000000835023
:101B80008A848A94D56F0000000000000000835012
:101B90008A848A94D66F0000000000000000835001
:101BA0008A848A94D76F00000000000000008350F0
:101BB0008A848A94D86F00000000000000008350DF
:101BC0008A848A94D96F00000000000000008350CE
:101BD0008A848A94DA6F00000000000000008350BD
:101BE0008A848A94DB6F00000000000000008350AC
:101BF0008A848A94DC6F000000000000000083509B
:101C00008A848A94DD6F0000000000000000835089
:101C10008A848A94DE6F0000000000000000835078
:101C20008A848A94DF6F00000000000000008A842C
:101C3000000112008B849494000EBD6E1200BD82D0
:101C40001200BD928B841200BD928B9412008D9075
:101C50008D928A940000000000000000200EFC6FAE
:101C600004EEC0F083508A848A94EE6E8D9000005A
:101C7000000000000000000083508A848A94EE6E09
:101C80008D8000000000000000000000FC2F32EFFB
:101C90000EF0200EFC6F00EE60F083508A848A9470
:101CA000EE6E8D90000000000000000000008350E8
:101CB0008A848A94EE6E8D8000000000000000008F
:101CC0000000FC2F4DEF0EF0200EFC6F00EEA0F098
:101CD00083508A848A94EE6E8D900000000000008C
:101CE0000000000083508A848A94EE6E8D8000008C
:101CF0000000000000000000FC2F68EF0EF08A8456
:101D000000011200000EF36E00EE00F0020E07D884
:101D1000000EF36E04EE00F0050E01D81200EA602A
:101D200002D0EE6AFCD7F350E9601200EE6AFCD7ED
:101D3000DACFE4FFE2CFDAFFE9CFE4FFEACFE4FF56
:101D4000F6CFE4FFF7CFE4FFF5CFE4FFF3CFE4FFF6
:101D5000F4CFE4FFFACFE4FF00EE00F00B0EE8044E
:101D600003E3EECFE4FFFBD700EE0BF0040EE80434
:101D700003E3EECFE4FFFBD7E65266EC00F0E5525A
:101D800000EE0EF0040EE80403E3E5CFEDFFFBD711
:101D900000EE0AF00B0EE80403E3E5CFEDFFFBD7FE
:101DA000E5CFFAFFE5CFF4FFE5CFF3FFE5CFF5FF91
:101DB000E5CFF7FFE5CFF6FFE5CFEAFFE5CFE9FF97
:101DC000E5CFDAFF1100D8CFE4FFE0CFE4FFE46E07
:101DD000DACFE4FFE652E552E5CFDAFFE550E5CF92
:101DE000E0FFE5CFD8FF100004D897EC01F0DAD976
:101DF000FED70F0EC11248D816EF00F00001000107
:101E0000E851080B02E08A8601D08A9600010001A1
:101E1000E851100B02E08A8801D08A98898489925F
:101E2000E6680F0EE66EE2C0E6FFE3C0E6FF65D8A7
:101E3000E552E552E552E552898289828994E6C0ED
:101E4000E6FFE7C0E6FFE4C0E6FFE5C0E6FF55D8E1
:101E5000E552E552E552E55289840001E851070B4D
:101E6000E8B4F809020A0BE0030A06E0010A01E0FF
:101E700009D08D908D9206D08D808D9203D08D905B
:101E80008D8200D000001200E30E8A168C6AF80ED4
:101E90008D16E30E9316F80E961695689494E10E3F
:101EA00092168D848A848982898489968998000112
:101EB000AD0EE06FDE0EE16FE891E893E895E897EC
:101EC000E899D00EE26F070EE36FE89BE88DE89F7C
:101ED000E469E569E669E76991DF27EC0EF0CD96E4
:101EE000CF0ECD143009CD6ECD92CD80EBDA00014E
:101EF000F56BF66BF76BF86B1200CBDA060EE1268A
:101F0000FD0EDBCFDEFFDBCFDDFFFB0EDBCF06F010
:101F1000FC0EDBCF07F0020E06C0DBFF030E07C08E
:101F2000DBFFC0DAD6DA1BE1020EDBCF0DF0030EC9
:101F3000DBCF0EF0D5DA05E0D8900C320B32E80496
:101F4000FBE1010E0B14E8B08988E8A08998899616
:101F50008986040EDB06050EE5E2DB06E3D7A2DA8E
:101F6000B8DA19E1DECF0DF0DDCF0EF0B9DA05E019
:101F7000D8900C320B32E804FBE1010E0B14E8B0F0
:101F80008988E8A0899889968986040EDB06050E63
:101F9000E7E2DB06E5D7060EE15C02E2E16AE55224
:101FA000E16E7CD276DA020EE126DE68DD688ADA3E
:101FB000000180DAE8B2FC09000924E1E8BF11D091
:101FC0008150010B05E014DA01E2DB0618DAF8E3D0
:101FD0008150010B3FE10CDA01E2DB0610DA3AE254
:101FE000F7D78150010B05E103DA01E2DB0607DADE
:101FF000F8E38150010B2EE0FBD901E2DB06FFD9AB
:1020000029E2F7D757DAE8B2FC09010823E1E8BF73
:1020100011D08050200B05E0EBD901E2DB06EFD9AF
:10202000F8E38050200B16E1E3D901E2DB06E7D9A3
:1020300011E2F7D78050200B05E1DAD901E2DB0687
:10204000DED9F8E38050200B05E0D2D901E2DB06AF
:10205000D6D9F8E307EC00F08B94020EE15C02E2C3
:10206000E16AE552E16E1AD214DA0B0EE1260401A0
:102070008029C06F0001020EF96F04018051900A9F
:1020800001E189D0E00A41E0400A2EE0500A23E055
:10209000200A1DE0400A01E07DD0090EE66EE66AE6
:1020A000810EE66E040EE66EE00EE66E000EBBD903
:1020B0000401090EC16FE66EE66AE00EE66E000EE0
:1020C000E66EC20EE66E040EAED998DE64D0E4D899
:1020D0000401C16F60D08029DF6E09DA0FEC08F0CF
:1020E0008D84DFCFC0F452D08029E76E010EE7CF98
:1020F000DBFF0001030EF96FF29E54DF8D9427EC95
:102100000EF0F28E8D84010E3FD08029E76E040E12
:10211000E7CFDBFF050E81C4DBFF060EDB68070E91
:10212000DB68E5D9EAD987D901E6ECD90BE293D986
:10213000A2D9FEE1A7D9C00EE926040E94D9F3E393
:10214000DB2AF1D7DAD977D901E6DCD90BE283D9DA
:1021500092D9FEE197D9600EE926000E84D9F3E307
:10216000DB2AF1D7CAD967D901E6CCD90BE273D9FA
:1021700082D9FEE187D9A00EE926000E74D9F3E3D7
:10218000DB2AF1D78D84040EDBCFC0F407EC00F01E
:102190008B8401D0C06B0B0EE15C02E2E16AE55278
:1021A000E16E7CD1200E0401E76E3619E8AE02D054
:1021B000E73402D0E750365D03E36D50020B03E0D5
:1021C0000001F96B12000001F951060A51E0030AFF
:1021D0003BE0060A2AE0010A1AE0030A14E0010AB9
:1021E00001E01200F551F61102E1000E08D0F5C031
:1021F000E9FFF6C0EAFFEF50800B01E0010E000995
:102200004AE134EF10F001D90001F96B1200F751E7
:10221000F81102E1000E03D017D901E0010E000908
:102220003AE1D8D80001010E21D0F751F81102E1AE
:10223000000E03D009D901E0010E00092CE1CAD833
:10224000020E0001F92512D0F751F81102E1000E3B
:1022500003D0FAD801E0010E00091DE1400EE66E40
:10226000E66A600EE66E000E52D9F929F96F120087
:10227000F751F81102E1000E03D0E6D801E0010E9B
:10228000000909E1400EE66EE66AA00EE66E000E59
:102290003ED9010EF96F1200FCD8E6528A948D9453
:1022A0008350DF6E8A848D84DF50E552F7D06DB2A3
:1022B00012000401365101E11200360501E112005D
:1022C000020E365D01E11200040E365D01E11200DE
:1022D000100E365D01E11200200E365D1200120074
:1022E000120012000001F96B1200A0EF06F01200BC
:1022F0001E0EE66E010EE66EF4EC00F0E552E552BD
:1023000005EF12F00401550520E1040156051DE119
:10231000A09AE6DF6D920401566B0001100EE96F82
:102320000E0EEA6FE907000EEA5BE951EA11FAE1E5
:102330006D84080EE96F070EEA6FE907000EEA5B8D
:10234000E951EA11FAE16D94A08A1200A2D8FD0EBB
:10235000DBCF06F0FE0EDBCF07F0050E061801E11D
:10236000075036E0E868061802E17F0E07182FE0F4
:10237000030E061801E1075028E0020E061801E1DD
:10238000075021E0010E061801E107501AE0740E13
:10239000061801E1075013E0750E061801E1075019
:1023A0000CE0730E061801E1075005E0720E0618E6
:1023B0000FE107500DD095DF0BD091DF09D090DFF2
:1023C00007D096DF05D093DF03D08FDF01D08ADFFF
:1023D000010E64D0400EE66EC00EE66E040EE66E90
:1023E000010EE66E9CD8F3CFF7F0F4CFF8F01200B0
:1023F000DFCF0BF0DF06010EDBCF0CF01200000E7A
:10240000D8800B54000E0C541200400EE66E800E65
:10241000E66E040EE66EE66A010E81D8F3CFF5F0A3
:10242000F4CFF6F01200E66E53EC07F00B6E060EDA
:10243000E15E0B501200090EDBCF0BF00A0EDBCF72
:102440000CF0D8900C501200F7C0E9FFF8C0EAFF7A
:10245000EF50800B12008A94050EDB50E76E080ED9
:10246000E7CFDBFF1200EA2283CFEFFF8A84090E59
:10247000DB2A0A0E1200080EDBCFF3FFDB06F35057
:1024800000091200090EDBCFE9FF0A0EDBCFEAFFDD
:102490001200D9CFE6FFE1CFD9FF1200E552E7CF16
:1024A000D9FF12000B0EF36E040EF3CFDBFF050E07
:1024B000DB6A1200E851600BE842E842E842E84279
:1024C000E8421200F00EBD140209BD6EBE68BF687E
:1024D0001200040E050EDBCF0CF0800E0C1412005F
:1024E000040EDB500DC00BF00EC00CF0120000010A
:1024F000030EF96F57DD8D941200090EDB6A0A0E88
:10250000DB6A1200400E0B5C000E0C581200E66EE7
:10251000C00EE66E040E87DF5DDF00011200E66E7E
:0E25200018EC01F00B6E050EE15E0B50120080
:020000040030CA
:0100000024DB
:010001000EF0
:0100020036C7
:010003001EDE
:01000500807A
:010006008178
:0100080003F4
:0100090040B6
:01000A0003F2
:01000B006094
:01000C0003F0
:01000D0040B2
:00000001FF
