:020000040000FA
:0600000083EF0EF0120078
:0600080004EF08F01200F5
:02000E009D94BF
:04001000BD6A1200B3
:060018000CEF08F01200DD
:02001E000100DF
:0C0020000E100000F700000005000000BA
:04002C006BEC06F083
:10003000A09A6A6A686A706AB5EC05F003EC06F08B
:10004000DF6AEBEC05F003E29BEC05F0FAD76D8C70
:100050006E6A6D986D9C68A607D068960401496B1E
:100060004E6B4F6B506BF7D70401010E606F616FE1
:10007000626B636B566BDF6A020EDF5C11E2EA6A49
:10008000DF346EEC06F0EA22EE6AED6AEA6ADF34EB
:1000900075EC06F0EA22EE6AED6AABEC05F0ECD7FF
:1000A0000401080E416F040E426F160E706E0401BB
:1000B000200E026F040E036F080E016F840E006F96
:1000C0000401376B366BE55275EF05F06BEC06F00B
:1000D0000401360507E16DBA05D0686A6980698850
:1000E000020E366F6850040B05E06950040B02E005
:1000F00068943FDB6DB245D06850010B09E0695050
:10010000010B06E093DFA08A0401040E366F6890AD
:100110006850100B05E06950100B02E020DB689876
:1001200068AC0FD069AC05D00AEC06F0730E62EC37
:1001300005F0689C04015E5101E05E075E5101E13B
:1001400009D96850200B04E06950200B01E0F7DA70
:100150006850020B0BE06950020B08E00AEC06F055
:10016000E6687F0EE66E7CEC06F06A6A040E040117
:10017000E76E3619E8AE02D0E73402D0E750365DBC
:1001800002E2A19A2ED069A62BD0DF6A040EDF5CB2
:1001900027E268A625D06CCF57F404015751780B9D
:1001A000E842E842E842586F689657B504D0585183
:1001B00083EC06F003D0585188EC06F0EA22EF7089
:1001C000585102E1E2DA0AD0000EE66EE66A570EF6
:1001D000E66E040EE66E720E62EC05F0DF2AD6D7EC
:1001E000A19AE55275EF05F03DEC06F0FD0EDBA49B
:1001F00003D0E66AF3EC05F0FD0EDBA204D0010E9D
:10020000E66EF3EC05F0FE0EDB500C6A700F0B6E21
:100210000F0EE5EC05F066EC05F0FD0EDBCFEFFF11
:10022000020EE15C02E2E16AE552E16E75EF05F073
:100230003DEC06F0FD0EDB5003E05DEC05F002D076
:100240008CEC05F0D1EC05F0D9CFE9FFDACFEAFF6D
:10025000EE50ED1003E1F36AF46A28D066EC05F085
:1002600097EC06F0FB0EDBCFEEFFFC0EDBCFEDFFD5
:1002700066EC05F0EE52FA0EDBCFEFFF400E8DEC90
:1002800006F0880E9CEC06F0FD0EDB5003E05DEC02
:1002900005F002D08CEC05F0EA22EF74DECF0BF013
:1002A000DDCF0CF00BC0F3FF0CC0F4FF020EE15CDD
:1002B00002E2E16AE552E16E75EF05F03DEC06F011
:1002C000FE0EDB5003E14BEC06F009D091EC05F09B
:1002D0002BEC06F091EC05F0010F2BEC06F0020E72
:1002E000E15C02E2E16AE552E16E75EF05F070EC67
:1002F00005F06DA816D05CEC06F0400EEE16EE6A26
:10030000EE6AEE6A5CEC06F0EE7CD7DBEA22EF7474
:10031000400E0B6E5CEC06F00B50EF165CEC06F03A
:10032000EF7CE3D36D6A696A0401366B1200040145
:1003300036510FE16D6A696A03EC06F0D08EA28A2D
:10034000A08AF28E6DB602D06D86FCD70401010E34
:10035000366F12000401605122E1010E606F61519D
:100360001EE1010E616F020E465D07E1B4DBEE5245
:10037000EF6AB1DBC80EEF6E1200460510E1596B53
:10038000C0DBEE52080EEF6EBCDB37EC06F0B9DBDB
:10039000840EEF6E010E596F8CDB800EEF6E120033
:1003A0000401626B636B020E465D06E191EC06F0A0
:1003B000ADDB26EC06F010D04A510401265D0401A5
:1003C0004B510401275904E226C44AF427C44BF4D4
:1003D00061D881DB9BDB7FDBC80EEF6E12003DEC4A
:1003E00006F0000EDE6E040EDD6E9BDB040DF4CF16
:1003F0000CF0D9CFE9FFDACFEAFFF350EE260C502C
:10040000ED2264DBEF9EFD0EDB5002E185DB01D0C7
:1004100054DBEA22DECFEEFFDDCFEDFF57DBEF9CB2
:1004200055DB040EE926000EEA22EF8C020EE15C99
:1004300002E2E16AE552E16E58D36D98040149BFCA
:100440000DD04EAF09D0020E466F635101E1A8DF17
:100450000401616B606B12004BEF06F0040120AFEA
:100460000DD00401010E466F625101E199DF0401D4
:10047000616B606B5F510DE1AAEF01F00401020EA8
:10048000466F17DB840EEF6E616B606B5F5101E1AD
:1004900061DF12006BEC06F0080EDF6E04014A5DAE
:1004A000000E4B590AE24AC4DFFF455102E1010E3A
:1004B00003D0450502E1020E456FDF500C6AE8509B
:1004C0004A5D4A6F0C504B594B6F05DBEE52DFCF44
:1004D000EFFF280E536F040E546F49B10DD0DF505B
:1004E00017E047C4F6FF48C4F7FF472B000E482328
:1004F0000800F55049DBF3D7DF500AE047C4E9FFB5
:1005000048C4EAFF472B000E4823EF503DDBF4D7E9
:10051000E552EBD2B2DBF5DAEE52EFCFDFFFDFCF01
:100520000BF00B5004014F5D000E505902E24FC416
:10053000DFFFDF500B6E0C6AE8504F5D4F6F0C50C1
:100540005059506F010EDB6ADF50F36E010EDBCFA6
:10055000F4FFF350F45C16E2010EDB50EA6A280F58
:10056000E96E040EEA22EF50E66E4CC4E9FF4DC47A
:10057000EAFF4C2B000E4D23E552E750EF6E010EC3
:10058000DB2AE2D7000ED8804F55000E50550DE201
:10059000C8DBBCDAB6DAEF50400B03E157DBC80E1C
:1005A00002D054DB880EEF6E12D083DA840EEF6E29
:1005B0005151521107E005D052C4FAFF04015151C4
:1005C000F96EFADF04014E9F5F5101E1C3DE020EB6
:1005D000E15C02E2E16AE552E16E87D27CDB040174
:1005E000498FC3DADF6AF7DA02E2A5DAFCD76D8C4D
:1005F000DF6A020EDF5C02E2AEDAFBD7010EE66EC6
:10060000E66AE66A380EE66E040E5DDB6D9C040158
:10061000080E416F040E426F000E396F040E3A6FE0
:1006200039C43BF43C6F22C437F4375102E1100E59
:100630000BD0010EE66EE66A370EE66E040EE66E2D
:10064000010E40DA0401200E366FE5524ED2800EC4
:100650000401205D38E10401C00E496F04012351FB
:10066000030A1AE0010A09E0030A2BE10401840EDF
:10067000476F1C0E486F120E1ED0DADAFD0EF626FA
:100680001C0EB9DA020E0401CCDAF5CF4AF4030EDF
:10069000C8DAF5CF4BF41200030E225D0FE2C8DA80
:1006A000FF0EF6261C0EA7DA47C4F6FF48C4F7FF74
:1006B0000800F55004014A6F4B6B12000401496BAE
:1006C00012000401496B1200D8DA0401286B296B6F
:1006D00020511F0B020A11E0030A0CE0010A1EE17F
:1006E0000401498F040128810401550517E1040123
:1006F000288314D00401498F11D00401498F0401CB
:1007000024BF02D0CFDA01D0D2DA4BDAD8DA06E051
:10071000DDD9EF50040B02E0010E286F040149AF50
:1007200007D0280E476F040E486F4981020E4A6FAA
:10073000020EE15C02E2E16AE552E16ED6D170A000
:100740000CD0DFD9EF50800807E1C5D9EF508408FD
:1007500003E1D7D98C0EEF6E7090689A120069840D
:1007600068986D820401010E566F21DA750E62EFF2
:1007700005F00401566B1BDA740EA4D96D926994CE
:1007800068A402D06894FCD71200A5DA04012D0EEB
:100790005E6FFD0E571539E17E0E5715E8407F0B51
:1007A000040DF3CF39F4F4CF3AF4000E3927040ED8
:1007B0003A2339C43BF43AC43CF43B75A2D9EF5018
:1007C0003C0BE842E8420D081EE1DF6A080EDF5CE0
:1007D00016E297D9020EE926000ED0D9EF50E66E48
:1007E000DF50EA6A200FE96E040EEA22E552E75074
:1007F000EF6E87D99CDAEE2AEF22DF2AE7D781D97C
:1008000036DA0AD807D023D805D0FD0E57150408CC
:1008100001E12CD8E55269D10401456B5F6B626B35
:10082000636B596B466B57D9EF9E417554D9EF9E58
:1008300041750CDAEF9E496B4A6B4B6B4E6B4F6BFD
:10084000506B4ED8B4D9030E3DD91DEF02F0020E05
:100850000401465D02E18AEF02F0466B595104E162
:1008600028D98C0EEF6E1200596B120034DA33D98E
:10087000EF50400B01E0010EDF6E04014175080EE0
:10088000365D08E122C46EFF6E5002E0100E01D00A
:10089000040E366F460513E11ED938D9FBDD020E72
:1008A0000401455D03E117D9840E07D0DF5003E151
:1008B00012D9C80E02D00FD9880EEF6E0FD04EAFEE
:1008C0000CD05151521107E005D052C4FAFF040177
:1008D0005151F96EFADF04014E9F466BE55205D186
:1008E00004012051600BE842E842E842E842E84255
:1008F000000901E0120021510C0A45E00B0A3FE01B
:100900000C0A31E0010A22E00B0A1EE0020A1CE098
:10091000030A18E0080A10E0010A0CE00F0A08E0D8
:10092000030A01E012000401498F080E366F12001D
:1009300027EF03F0EEEF02F00401370E476F040ECD
:10094000486F0CD064EF03F0C4EF04F024510401AD
:10095000476F486B380E4727040E48234981010E24
:100960004A6F498F12000401498F04012451EA6A39
:10097000380FE96E040EEA2222C4EFFF120017D9E5
:10098000020E62EF05F01200ABD8050EE12604015D
:10099000220510E120511F0B00090CE10401498FD1
:1009A000030E0401215D04E10401010E556F02D024
:1009B0000401556B0401225101E074D020511F0B3A
:1009C000020870E124510F0B00096CE024510F0B59
:1009D000010868E3200E0401365D64E1498F0401DB
:1009E00024BF04D05FD9DDD8E8D803D060D9D9D8E6
:1009F000E8D8EA22020EEFCFDBFF21D9010B03E199
:100A0000000EDF9401D0DF8424BF02D04BD901D087
:100A10004ED9EA22DECFEEFFDDCFEDFF030E215DE2
:100A20000CE14DD907E024BF02D0C7D801D0C9D806
:100A3000EA22EF82840E80D935D0DF7440D906E0F7
:100A400045D8EF9E43D8EF8C1CD902D03FD8EF8C0D
:100A5000DF74F5D8020B02E132D90DE0040124BFA6
:100A600002D0ABD801D0ADD8EA22EF923B0E0B6E8C
:100A700054D907D902D03B0E50D9040124510F0B91
:100A80000C6A700F0B6E0F0E0C22030E0BC0DBFFF7
:100A9000040E0CC0DBFF030EDBCFE9FF040EDBCF3F
:100AA000EAFFEF90050EE15C02E2E16AE552E16ED9
:100AB0001CD037D9DCD826EF06F0FE0EEA6ADB340C
:100AC0006EEF06F0E66EE66A7CEF06F0DECFE9FF39
:100AD000DDCFEAFF120041C4E9FF42C4EAFF120081
:100AE000D9CFE6FFE1CFD9FF1200E552E7CFD9FF1A
:100AF000120024510F0BE96EEA6AD890E936EA3603
:100B0000120039C4E9FF3AC4EAFF120010D9280ED6
:100B1000EE6E040EED6E1200FE0EEA6ADB3475EF27
:100B200006F0FD0EDB50E8240D6EFE0EDB50040DCA
:100B3000F3500D241200DF50040DF3CFE9FFF4CF82
:100B4000EAFF000EE926040EEA22EE6AEE6AEE6A79
:100B5000EE6ADF2A1200DF50DBD8EA22EF6ADF50AC
:100B6000D2D8EA22EF6ADF2A1200010EE66EE66AA8
:100B7000E66A710EE66E0F0E63EF06F0EA22EE50A3
:100B8000EFCFEAFFE96E1200E66E53C4E9FF54C4EA
:100B9000EAFF532B000E5423E552E750EF6EDF06B9
:100BA0001200EA22EECFDEFFEDCFDDFF1200000ED5
:100BB000E66EE66AE66EE66A120024510F0B83EFDA
:100BC00006F024510F0B88EF06F00C220BC0DEFF5D
:100BD0000CC0DDFF1200DF500B6E0C6A080E0B5CC0
:100BE000000E0C581200FE0EDBCFE6FFEFEC01F01A
:100BF000E552E5521200F7220900F5CF47F40A004A
:100C0000F5CF48F41200160E6F6E9F0E6B6E7B0EC2
:100C1000696E1200010EE66EE66A000EE66EE66A86
:100C20001200F76A4725F66E4851F72208001200B5
:100C30002251F66EF76AD890F636F7361200D95080
:100C4000020FE96EDACFEAFFEF5012003BC4E9FF72
:100C50003CC4EAFF1200040DF3CF0BF0F4CF0CF00C
:100C6000000E0B26040EB1DF840E9CEF06F05FD859
:100C7000200EEE6E040EED6E120032DF020EE12643
:100C80001200020EE66EE66ADECFE6FFDDCFE6FF7B
:100C9000050E62EF05F00DDF8C0EEF6E1CDF840E8B
:100CA000EF6E120026DF3D0EE926040E120021DF52
:100CB000410EE926040E120000DFBEEF05F006DF4C
:100CC000EF50800B1200E66EDAEC07F00B6E050EAB
:100CD000E15E0B50120004DFE6521200FE0BEA3612
:100CE000E96E410EE926040E1200FE0BEA36E96EAB
:100CF0003D0EE926040E12004EEC0BF00B6E060EB4
:100D0000E15E0B501200EA6A5C0FE96E040E1200FD
:100D1000EA6A5A0FE96E040E1200D8DEE850EF16A8
:100D2000120094DFEE52080EEF6E26EF06F0020E70
:100D3000E926000EEA221200C9DEE850EF12120086
:100D4000040120511F0B010801E01200245101E0B1
:100D50001200060E215D1EE12351230A1BE0010A49
:100D60000CE0030A17E10401370514E10401A80EA1
:100D7000476F1C0E486F090E09D0040137050AE1C0
:100D80000401E10E476F1C0E486F1C0E4A6F4B6B3F
:100D9000C00E496F04012051600BE842E842E8426E
:100DA000E842E842010801E0120021510B0A26E066
:100DB000080A19E0090A11E0080A05E00B0A23E015
:100DC000080A21E012000401FC0E476F000E486F74
:100DD000010E4A6F4B6BC10E0FD00401800E496F9C
:100DE00023C4FCF012000401FD0E476F000E486F93
:100DF000010E4A6F4B6B810E496F12000401800E89
:080E0000496F22C4FDF012004D
:080E0800DACFE4FFE2CFDAFFCC
:100E1000E9CFE4FFEACFE4FFF6CFE4FFF7CFE4FF4A
:100E2000F5CFE4FFF3CFE4FFF4CFE4FFFACFE4FF24
:100E300000EE00F00B0EE80403E3EECFE4FFFBD777
:100E400000EE0BF0040EE80403E3EECFE4FFFBD763
:100E5000E65266EC00F0E55200EE0EF0040EE804F7
:100E600003E3E5CFEDFFFBD700EE0AF00B0EE8043D
:100E700003E3E5CFEDFFFBD7E5CFFAFFE5CFF4FFC6
:100E8000E5CFF3FFE5CFF5FFE5CFF7FFE5CFF6FFC1
:100E9000E5CFEAFFE5CFE9FFE5CFDAFF1100D8CFD4
:100EA000E4FFE0CFE4FFE46EDACFE4FFE652E55280
:100EB000E5CFDAFFE550E5CFE0FFE5CFD8FF100042
:100EC0001E0EF66E000EF76E000EF86E00010900A1
:100ED000F550F26F0900F550F36F03E1F26701D0AE
:100EE0003DD00900F550ED6F0900F550EE6F090097
:100EF000F550EF6F09000900F550E96E0900F55053
:100F0000EA6E090009000900F550F06F0900F5507C
:100F1000F16F09000900F6CFF4F0F7CFF5F0F8CF44
:100F2000F6F0EDC0F6FFEEC0F7FFEFC0F8FF0001EE
:100F3000F05302E1F15307E00900F550EE6EF007BF
:100F4000F8E2F107F9D7F4C0F6FFF5C0F7FFF6C0F5
:0E0F5000F8FF0001F207000EF35BBFD712009E
:020F5E00D9CFE9
:100F6000E6FFDACFE6FFFA0EE3CFD9FFFB0EE3CFC1
:100F7000DAFFFC0EE3CFE9FFFD0EE3CFEAFFE9CF96
:100F8000F3FFEACFF4FFF80EE35003E1F90EE3506C
:100F900008E0F80EE30602E2F90EE306DECFEEFF0C
:100FA000F2D7FF0EE3CFDAFFE552FF0EE3CFD9FF12
:100FB000E5521200FE0EE3CFE9FFFF0EE3CFEAFF9A
:100FC000E9CFF3FFEACFF4FFFB0EE35003E1FC0EA1
:100FD000E35009E0FB0EE30602E2FC0EE306FD0E21
:080FE000E350EE6EF1D71200A0
:0610000083EF0EF0120068
:021006001200D6
:0610080004EF07F01200E6
:02100E000000E0
:03101000000000DD
:061018004FEF07F012008B
:02101E0004D8F4
:1010200097EC01F056DAFED70F0EC11248D816EF32
:1010300000F000010001EA51080B02E08A8601D0AD
:101040008A9600010001EA51100B02E08A8801D063
:101050008A9889848992E6680F0EE66EE2C0E6FF00
:10106000E3C0E6FF69D8E552E552E552E5528982D0
:1010700089828994E6C0E6FFE7C0E6FFE4C0E6FFA8
:10108000E5C0E6FF59D8E552E552E552E5528984BC
:101090000001EA51070BE8B4F809020A0BE0030A61
:1010A00006E0010A01E009D08D908D9206D08D8076
:1010B0008D9203D08D908D8200D000001200E30E3F
:1010C0008A168C6AF80E8D16E30E9316F80E961695
:1010D00095689494E10E92168D848A84898289841D
:1010E000899689980001AD0EE06FDE0EE16FEA91FE
:1010F000EA93EA95EA97EA99D00EE26F070EE36F5A
:10110000EA9BEA8DEA9FE469E569E669E76991DFB0
:10111000010E0001E86FE96B0BEC0DF0CD96CF0EE0
:10112000CD143009CD6ECD92CD8093DB0001F76BED
:10113000F86BF96BFA6B12005FDB060EE126FD0E11
:10114000DBCFDEFFDBCFDDFFFB0EDBCF06F0FC0EDF
:10115000DBCF07F0020E06C0DBFF030E07C0DBFF8C
:1011600068DB7EDB1BE1020EDBCF0DF0030EDBCF75
:101170000EF07DDB05E0D8900C320B32E804FBE189
:10118000010E0B14E8B08988E8A0899889968986B1
:10119000040EDB06050EE5E2DB06E3D74ADB60DB87
:1011A00019E1DECF0DF0DDCF0EF061DB05E0D89068
:1011B0000C320B32E804FBE1010E0B14E8B0898815
:1011C000E8A0899889968986040EDB06050EE7E279
:1011D000DB06E5D7060EE15C02E2E16AE552E16E6C
:1011E00010D30ADB020EE126DE68DD6832DB000187
:1011F00028DBE8B2FC09000924E1EABF11D08150E4
:10120000010B05E096DA01E2DB06A4DAF8E381508F
:10121000010B3FE18EDA01E2DB069CDA3AE2F7D716
:101220008150010B05E185DA01E2DB0693DAF8E390
:101230008150010B2EE07DDA01E2DB068BDA29E238
:10124000F7D7FFDAE8B2FC09010823E1EABF11D0C1
:101250008050200B05E06DDA01E2DB067BDAF8E373
:101260008050200B16E165DA01E2DB0673DA11E249
:10127000F7D78050200B05E15CDA01E2DB066ADA81
:10128000F8E38050200B05E054DA01E2DB0662DA75
:10129000F8E307EC00F08B94020EE15C02E2E16AF5
:1012A000E552E16EAED2A8DA0A0EE126DF6A040149
:1012B0008029E76E010EE7CFDBFF0001020EFB6F16
:1012C00004018051900A01E1F7D0A00A01E1DCD0CD
:1012D000500A01E1C3D0200A01E1BCD0620A01E159
:1012E0008CD0020A5DE0300A1DE0100A01E0E8D06F
:1012F0000B0EE66EE66A810EE66E040EE66EE00EFA
:10130000E66E000E42DA04010B0EC16FE66EE66A6D
:10131000E00EE66E000EE66EC20EE66E040E35DAE4
:1013200088DECAD0040EDB6A050EDB6AA7DA72DA41
:10133000A9DA0BE255DA01E3DB2A2FDAC00EE9263F
:10134000040E32DAF5E3DB2AF3D764DA9BDA0BE238
:1013500047DA01E3DB2A21DA800EE926040E24DADB
:10136000F5E3DB2AF3D756DA8DDA0BE239DA01E35B
:10137000DB2A13DA600EE926000E16DAF5E3DB2A23
:10138000F3D748DA7FDA01E397D02ADA01E3DB2AE0
:1013900004DAA00EE926000E07DAF4E3DB2AF2D71E
:1013A0006DDA3DDA75DA08E206DAC00EE926040ED7
:1013B0001DDAF8E3DB2AF6D732DA6ADA08E2FBD97B
:1013C000800EE926040E12DAF8E3DB2AF6D727DAD4
:1013D0005FDA08E2F0D9600EE926000E07DAF8E3DA
:1013E000DB2AF6D71CDA54DA67E2E5D9A00EE92643
:1013F000000EFCD9F8E3DB2AF6D740DA15DA4EDA2C
:1014000008E2E0D9C00EE926040EE3D9F8E3DB2AAE
:10141000F6D70ADA43DA08E2D5D9800EE926040EB7
:10142000D8D9F8E3DB2AF6D7FFD938DA08E2CAD9E7
:10143000600EE926000ECDD9F8E3DB2AF6D7F4D901
:101440002DDA3AE2BFD9A00EE926000EC2D9F8E3A0
:10145000DB2AF6D7C9D80401C16F2ED00FDAC1DE5E
:10146000F29E8D940001E851E91103E1F1EC0DF0D9
:1014700008D0E8C0E6FFE9C0E6FF12EC0DF0E55247
:10148000E5528D84F28E15D0F9D9F29EAADE8D94A4
:101490000001E851E91103E17BEC0DF008D0E8C050
:1014A000E6FFE9C0E6FF77EC0CF0E552E552F28E7C
:1014B0008D8407EC00F08B84010EDBCFC0F402D0EA
:1014C000DFCFC0F40A0EE15C02E2E16AE552E16EB0
:1014D00098D1200E0401E76E3619E8AE02D0E73449
:1014E00002D0E750365D03E36D50020B03E00001CC
:1014F000FB6B12000001FB51060A61E0030A47E0A2
:10150000010A35E0070A28E0010A1AE0030A14E09C
:10151000010A01E01200F751F81102E1000E08D0B3
:10152000F7C0E9FFF8C0EAFFEF50800B01E0010EC1
:10153000000959E153EF09F013D90001FB6B1200C8
:10154000F951FA1102E1000E03D018D901E0010EA1
:10155000000949E1B1D931D0F951FA1102E1000E87
:1015600003D00CD901E0010E00093DE122D0F95170
:10157000FA1102E1000E03D001D901E0010E0009C9
:1015800032E1400EE66E800EE66E040E14D0F95184
:10159000FA1102E1000E03D0F1D801E0010E0009BA
:1015A00022E1400EE66EE66A600EE66E000E2DD970
:1015B000ECD8400E2AD9C4D8FB29FB6F1200F95190
:1015C000FA1102E1000E03D0D9D801E0010E0009A2
:1015D0000AE1400EE66EE66AA00EE66E000E15D930
:1015E000D4D86AD9FB6F120007D9E6528A948D9439
:1015F0008350DF6E8A848D84DF50E55202D16DB254
:1016000012000401365101E11200360501E1120019
:10161000020E365D01E11200040E365D01E112009A
:10162000100E365D01E11200200E365D1200120030
:10163000120012000001FB6B1200A0EF06F0120076
:101640001E0EE66E010EE66EF4EC00F0E552E55279
:10165000B0EF0BF00401550520E1040156051DE132
:10166000A09AE6DF6D920401566B0001100EEB6F3D
:101670000E0EEC6FEB07000EEC5BEB51EC11FAE198
:101680006D84080EEB6F070EEC6FEB07000EEC5B42
:10169000EB51EC11FAE16D94A08A1200ADD8FD0E69
:1016A000DBCF06F0FE0EDBCF07F0050E061801E1DA
:1016B000075036E0E868061802E17F0E07182FE0B1
:1016C000030E061801E1075028E0020E061801E19A
:1016D000075021E0010E061801E107501AE0740ED0
:1016E000061801E1075013E0750E061801E10750D6
:1016F0000CE0730E061801E1075005E0720E0618A3
:101700000FE107500DD095DF0BD091DF09D090DFAE
:1017100007D096DF05D093DF03D08FDF01D08ADFBB
:10172000010E6FD0DBCF0CF0400E0B5C000E0C589E
:101730001200DFCF0BF0DF06010EDBCF0CF0120042
:10174000E66E010EE66EB0D8F3CFF9F0F4CFFAF002
:1017500000011200000ED8800B54000E0C54120031
:10176000400EE66E800EE66E040EE66EE66A010E30
:101770009BD8F3CFF7F0F4CFF8F01200F9C0E9FFEF
:10178000FAC0EAFFEF50800B1200E66EAFEC07F0F4
:101790000B6E060EE15E0B501200020EDBCFE9FF6E
:1017A000030EDBCFEAFF1200EA220BC0EFFF020EAE
:1017B000DB2A030E1200060EDBCFE9FF070EDBCF9C
:1017C000EAFF1200080EDBCFE9FF090EDBCFEAFFCC
:1017D0001200EA22800EEF6E080EDB2A090E1200BC
:1017E000040EDBCF0BF0DB2A050E1200EA22EF6AB3
:1017F000060EDB2A070E1200D9CFE6FFE1CFD9FF94
:101800001200E552E7CFD9FF1200E66EC00EE66E79
:10181000040E1200020EDB6A030EDB6A1200060ED3
:10182000DB6A070EDB6A1200080EDB6A090EDB6A50
:1018300012000B0EF36E040EF3CFDBFF050EDB6A16
:101840001200EA51600BE842E842E842E842E8420E
:101850001200F00EBD140209BD6EBE68BF68120012
:10186000040E050EDBCF0CF0800E0C141200040EDB
:10187000DB500DC00BF00EC00CF012000001030E87
:10188000FB6F1200020EDBCF0BF0030E92EF0BF09A
:10189000060EDBCF0BF0070E92EF0BF0080EDBCF3E
:1018A0000BF0090E92EF0BF0E66E18EC01F00B6EE8
:1018B000050EE15E0B501200400EA7DF41DF010E66
:0218C000120014
:0E18C2008B849494000EBD6E1200BD82120045
:1018D000BD928B841200BD928B941200642B652BF9
:1018E000642F70EF0CF0652F70EF0CF01200FF0EFC
:1018F000E3CF67F4FE0EE3CF68F48D908D928A9467
:1019000000000000000000000401200E666F04EEDD
:10191000C0F083508A848A94EE6E8D90000000009F
:1019200000000000000083508A848A94EE6E8D804F
:101930000000000000000000000067C465F468C4F7
:1019400064F46EEC0CF0662F89EF0CF0200E666FDD
:1019500004EE80F083508A848A94EE6E8D900000AD
:10196000000000000000000083508A848A94EE6E1C
:101970008D800000000000000000000067C465F4D6
:1019800068C464F46EEC0CF0662FAAEF0CF0200E25
:10199000666F00EE60F083508A848A94EE6E8D90BC
:1019A0000000000000000000000083508A848A9438
:1019B000EE6E8D800000000000000000000067C493
:1019C00065F468C464F46EEC0CF0662FCBEF0CF099
:1019D000200E666F00EEA0F083508A848A94EE6E2B
:1019E0008D900000000000000000000083508A84F9
:1019F0008A94EE6E8D800000000000000000000060
:101A000067C465F468C464F46EEC0CF0662FECEF08
:101A10000CF08A841200000E656F000E646F6EEC8D
:101A20000CF01200FF0EE3CF6AF4FE0EE3CF6BF46E
:101A30008A9400000000000000000401400E696F5D
:101A400004EEC0F083508A848A94EE6E0000000099
:101A50000000000000006AC465F46BC464F46EEC1E
:101A60000CF0692F22EF0DF00401400E696F04EEB7
:101A700080F083508A848A94EE6E0000000000009B
:101A8000000000006AC465F46BC464F46EEC0CF0F2
:101A9000692F39EF0DF00401400E696F00EE60F020
:101AA00083508A848A94EE6E0000000000000000DB
:101AB00000006AC465F46BC464F46EEC0CF0692F2A
:101AC00050EF0DF00401400E696F00EEA0F083505E
:101AD0008A848A94EE6E000000000000000000007E
:101AE0006AC465F46BC464F46EEC0CF0692F67EFA4
:101AF0000DF08A8412008D908D928A94000000006F
:101B0000000000000401200E6C6F04EEC0F0835052
:101B10008A848A94EE6E8D90000000000000000020
:101B2000000083508A848A94EE6E8D80000000004D
:101B30000000000000006C2F87EF0DF0200E6C6F8E
:101B400004EE80F083508A848A94EE6E8D900000BB
:101B5000000000000000000083508A848A94EE6E2A
:101B60008D80000000000000000000006C2FA2EF3C
:101B70000DF0200E6C6F00EE60F083508A848A9422
:101B8000EE6E8D9000000000000000000000835009
:101B90008A848A94EE6E8D800000000000000000B0
:101BA00000006C2FBDEF0DF0200E6C6F00EEA0F06A
:101BB00083508A848A94EE6E8D90000000000000AD
:101BC0000000000083508A848A94EE6E8D800000AD
:101BD00000000000000000006C2FD8EF0DF08A8498
:101BE00012008A9400000000000000000401400E72
:101BF0006D6F04EEC0F083508A848A94EE6E00000C
:101C00006D2FFBEF0DF00401400E6D6F04EE80F0C0
:101C100083508A848A94EE6E00006D2F08EF0EF0D8
:101C20000401400E6D6F00EE60F083508A848A9448
:101C3000EE6E00006D2F15EF0EF00401400E6D6F7B
:101C400000EEA0F083508A848A94EE6E00006D2F1F
:101C500022EF0EF08A841200000EF36E00EE00F008
:101C6000020E07D8000EF36E04EE00F0050E01D848
:101C70001200EA6002D0EE6AFCD7F350E96012006D
:041C8000EE6AFCD735
:0C1C84001201000200000008ADDEEFBEFF
:101C900002000102000109022900010100C0FA0945
:101CA0000400000203000000092111010001221CB0
:101CB00000070581034000010705010340000104FE
:101CC00003090408036D007200750016036D0072AD
:101CD0000075002700730020006F00730063006927
:101CE000000600FF0901A101190129401501254045
:101CF000750895408100190129409100C0961CBFCC
:051D00001CC31CCB1CFC
:0A1D060011EE00F021EE00F0F86A83
:101D10000A9C60EC07F003EC08F00FEC08F0FBD72E
:021D20001200AF
:020000040030CA
:0100000024DB
:010001000EF0
:0100020036C7
:010003001EDE
:01000500807A
:010006008178
:0100080003F4
:0100090040B6
:01000A0003F2
:01000B006094
:01000C0003F0
:01000D0040B2
:00000001FF
