:020000040000FA
:06000000DCEF07F0120026
:0100060000F9
:0600080004EF08F01200F5
:02000E009D94BF
:04001000BD6A1200B3
:0400140000000000E8
:060018000CEF08F01200DD
:02001E000200DE
:10002000060000007F040000010000001400000032
:08003000790400000400000047
:0800380071EC06F0A09A6A6A5F
:10004000686A706ABBEC05F009EC06F0DF6AF1EC57
:1000500005F003E2A1EC05F0FAD76D8C6E6A6D989D
:100060006D9C68A607D068960401496B4E6B4F6B78
:10007000506BF7D70401010E606F616F626B636BA9
:10008000566BDF6A020EDF5C11E2EA6ADF3474EC61
:1000900006F0EA22EE6AED6AEA6ADF347BEC06F0EB
:1000A000EA22EE6AED6AB1EC05F0ECD70401080E25
:1000B000416F040E426F160E706E0401200E026F27
:1000C000040E036F080E016F840E006F0401376B7E
:1000D000366BE5527BEF05F071EC06F00401360556
:1000E00007E16DBA05D0686A69806988020E366FCB
:1000F0006850040B05E06950040B02E068943FDB94
:100100006DB245D06850010B09E06950010B06E063
:1001100093DFA08A0401040E366F68906850100BBC
:1001200005E06950100B02E020DB689868AC0FD046
:1001300069AC05D010EC06F0730E68EC05F0689C15
:1001400004015E5101E05E075E5101E109D968508A
:10015000200B04E06950200B01E0F7DA6850020B35
:100160000BE06950020B08E010EC06F0E6687F0E29
:10017000E66E82EC06F06A6A040E0401E76E361938
:10018000E8AE02D0E73402D0E750365D02E2A19A31
:100190002ED069A62BD0DF6A040EDF5C27E268A6AA
:1001A00025D06CCF57F404015751780BE842E84250
:1001B000E842586F689657B504D0585189EC06F05C
:1001C00003D058518EEC06F0EA22EF70585102E14C
:1001D000E2DA0AD0000EE66EE66A570EE66E040E0C
:1001E000E66E720E68EC05F0DF2AD6D7A19AE552CA
:1001F0007BEF05F043EC06F0FD0EDBA403D0E66ACE
:10020000F9EC05F0FD0EDBA204D0010EE66EF9EC70
:1002100005F0FE0EDB500C6A700F0B6E0F0EEBEC50
:1002200005F06CEC05F0FD0EDBCFEFFF020EE15C9C
:1002300002E2E16AE552E16E7BEF05F043EC06F085
:10024000FD0EDB5003E063EC05F002D092EC05F00C
:10025000D7EC05F0D9CFE9FFDACFEAFFEE50ED1089
:1002600003E1F36AF46A28D06CEC05F09DEC06F02B
:10027000FB0EDBCFEEFFFC0EDBCFEDFF6CEC05F0F1
:10028000EE52FA0EDBCFEFFF400E93EC06F0880E35
:10029000A2EC06F0FD0EDB5003E063EC05F002D0AB
:1002A00092EC05F0EA22EF74DECF0BF0DDCF0CF01C
:1002B0000BC0F3FF0CC0F4FF020EE15C02E2E16A46
:1002C000E552E16E7BEF05F043EC06F0FE0EDB50ED
:1002D00003E151EC06F009D097EC05F031EC06F0A3
:1002E00097EC05F0010F31EC06F0020EE15C02E242
:1002F000E16AE552E16E7BEF05F076EC05F06DA862
:1003000016D062EC06F0400EEE16EE6AEE6AEE6A69
:1003100062EC06F0EE7CD7DBEA22EF74400E0B6E47
:1003200062EC06F00B50EF1662EC06F0EF7CE3D3C4
:100330006D6A696A0401366B1200040136510FE1DF
:100340006D6A696A09EC06F0D08EA28AA08AF28EE4
:100350006DB602D06D86FCD70401010E366F120017
:100360000401605122E1010E606F61511EE1010E36
:10037000616F020E465D07E1B4DBEE52EF6AB1DB5E
:10038000C80EEF6E1200460510E1596BC0DBEE524D
:10039000080EEF6EBCDB3DEC06F0B9DB840EEF6EB1
:1003A000010E596F8CDB800EEF6E12000401626B40
:1003B000636B020E465D06E197EC06F0ADDB2CECBC
:1003C00006F010D04A510401265D04014B5104018E
:1003D000275904E226C44AF427C44BF461D881DBD0
:1003E0009BDB7FDBC80EEF6E120043EC06F0000EC5
:1003F000DE6E040EDD6E9BDB040DF4CF0CF0D9CF66
:10040000E9FFDACFEAFFF350EE260C50ED2264DB71
:10041000EF9EFD0EDB5002E185DB01D054DBEA22CA
:10042000DECFEEFFDDCFEDFF57DBEF9C55DB040E9B
:10043000E926000EEA22EF8C020EE15C02E2E16A9C
:10044000E552E16E58D36D98040149BF0DD04EAF0F
:1004500009D0020E466F635101E1A8DF0401616B10
:10046000606B120051EF06F0040120AF0DD00401C3
:10047000010E466F625101E199DF0401616B606B0F
:100480005F510DE1B0EF01F00401020E466F17DB82
:10049000840EEF6E616B606B5F5101E161DF1200F2
:1004A00071EC06F0080EDF6E04014A5D000E4B5938
:1004B0000AE24AC4DFFF455102E1010E03D04505BF
:1004C00002E1020E456FDF500C6AE8504A5D4A6F48
:1004D0000C504B594B6F05DBEE52DFCFEFFF280E70
:1004E000536F040E546F49B10DD0DF5017E047C46D
:1004F000F6FF48C4F7FF472B000E48230800F550CD
:1005000049DBF3D7DF500AE047C4E9FF48C4EAFFFC
:10051000472B000E4823EF503DDBF4D7E552EBD2DA
:10052000B2DBF5DAEE52EFCFDFFFDFCF0BF00B508F
:1005300004014F5D000E505902E24FC4DFFFDF504F
:100540000B6E0C6AE8504F5D4F6F0C505059506F56
:10055000010EDB6ADF50F36E010EDBCFF4FFF350C8
:10056000F45C16E2010EDB50EA6A280FE96E040E15
:10057000EA22EF50E66E4CC4E9FF4DC4EAFF4C2B73
:10058000000E4D23E552E750EF6E010EDB2AE2D755
:10059000000ED8804F55000E50550DE2C8DBBCDA76
:1005A000B6DAEF50400B03E157DBC80E02D054DB44
:1005B000880EEF6E12D083DA840EEF6E5151521115
:1005C00007E005D052C4FAFF04015151F96EFADF79
:1005D00004014E9F5F5101E1C3DE020EE15C02E2C5
:1005E000E16AE552E16E87D27CDB0401498FC3DA10
:1005F000DF6AF7DA02E2A5DAFCD76D8CDF6A020E59
:10060000DF5C02E2AEDAFBD7010EE66EE66AE66A6E
:10061000380EE66E040E5DDB6D9C0401080E416F22
:10062000040E426F000E396F040E3A6F39C43BF46A
:100630003C6F22C437F4375102E1100E0BD0010E8B
:10064000E66EE66A370EE66E040EE66E010E40DADE
:100650000401200E366FE5524ED2800E0401205D5B
:1006600038E10401C00E496F04012351030A1AE066
:10067000010A09E0030A2BE10401720E476F1C0E08
:10068000486F120E1ED0DADAED0EF6261C0EB9DA1D
:10069000020E0401CCDAF5CF4AF4030EC8DAF5CF26
:1006A0004BF41200030E225D0FE2C8DAEF0EF626BD
:1006B0001C0EA7DA47C4F6FF48C4F7FF0800F55040
:1006C00004014A6F4B6B12000401496B12000401D4
:1006D000496B1200D8DA0401286B296B20511F0BDB
:1006E000020A11E0030A0CE0010A1EE10401498F2D
:1006F000040128810401550517E10401288314D061
:100700000401498F11D00401498F040124BF02D094
:10071000CFDA01D0D2DA4BDAD8DA06E0DDD9EF5001
:10072000040B02E0010E286F040149AF07D0280E28
:10073000476F040E486F4981020E4A6F020EE15C5A
:1007400002E2E16AE552E16ED6D170A00CD0DFD9A9
:10075000EF50800807E1C5D9EF50840803E1D7D9ED
:100760008C0EEF6E7090689A1200698468986D82A2
:100770000401010E566F21DA750E68EF05F00401D1
:10078000566B1BDA740EA4D96D92699468A402D0DA
:100790006894FCD71200A5DA04012D0E5E6FFD0EE1
:1007A000571539E17E0E5715E8407F0B040DF3CF46
:1007B00039F4F4CF3AF4000E3927040E3A2339C441
:1007C0003BF43AC43CF43B75A2D9EF503C0BE842F1
:1007D000E8420D081EE1DF6A080EDF5C16E297D9D9
:1007E000020EE926000ED0D9EF50E66EDF50EA6A1D
:1007F000200FE96E040EEA22E552E750EF6E87D92A
:100800009CDAEE2AEF22DF2AE7D781D936DA0AD836
:1008100007D023D805D0FD0E5715040801E12CD8C8
:10082000E55269D10401456B5F6B626B636B596B79
:10083000466B57D9EF9E417554D9EF9E41750CDA3E
:10084000EF9E496B4A6B4B6B4E6B4F6B506B4ED8A8
:10085000B4D9030E3DD923EF02F0020E0401465D28
:1008600002E190EF02F0466B595104E128D98C0E59
:10087000EF6E1200596B120034DA33D9EF50400B8F
:1008800001E0010EDF6E04014175080E365D08E1DE
:1008900022C46EFF6E5002E0100E01D0040E366FBF
:1008A000460513E11ED938D9FBDD020E0401455D72
:1008B00003E117D9840E07D0DF5003E112D9C80E27
:1008C00002D00FD9880EEF6E0FD04EAF0CD0515121
:1008D000521107E005D052C4FAFF04015151F96EDC
:1008E000FADF04014E9F466BE55205D10401205109
:1008F000600BE842E842E842E842E842000901E0D1
:10090000120021510C0A45E00B0A3FE00C0A31E0CD
:10091000010A22E00B0A1EE0020A1CE0030A18E0AA
:10092000080A10E0010A0CE00F0A08E0030A01E0DF
:1009300012000401498F080E366F12002DEF03F0EC
:10094000F4EF02F00401370E476F040E486F0CD02D
:100950006AEF03F0CAEF04F024510401476F486BBB
:10096000380E4727040E48234981010E4A6F498FEC
:1009700012000401498F04012451EA6A380FE96E1C
:10098000040EEA2222C4EFFF120017D9020E68EF0C
:1009900005F01200ABD8050EE1260401220510E196
:1009A00020511F0B00090CE10401498F030E0401C3
:1009B000215D04E10401010E556F02D00401556B65
:1009C0000401225101E074D020511F0B020870E194
:1009D00024510F0B00096CE024510F0B010868E350
:1009E000200E0401365D64E1498F040124BF04D068
:1009F0005FD9DDD8E8D803D060D9D9D8E8D8EA22C1
:100A0000020EEFCFDBFF21D9010B03E1000EDF94D3
:100A100001D0DF8424BF02D04BD901D04ED9EA22C5
:100A2000DECFEEFFDDCFEDFF030E215D0CE14DD9F2
:100A300007E024BF02D0C7D801D0C9D8EA22EF828C
:100A4000840E80D935D0DF7440D906E045D8EF9EBA
:100A500043D8EF8C1CD902D03FD8EF8CDF74F5D887
:100A6000020B02E132D90DE0040124BF02D0ABD861
:100A700001D0ADD8EA22EF923B0E0B6E54D907D9C4
:100A800002D03B0E50D9040124510F0B0C6A700F99
:100A90000B6E0F0E0C22030E0BC0DBFF040E0CC0FE
:100AA000DBFF030EDBCFE9FF040EDBCFEAFFEF90A5
:100AB000050EE15C02E2E16AE552E16E1CD037D935
:100AC000DCD82CEF06F0FE0EEA6ADB3474EF06F099
:100AD000E66EE66A82EF06F0DECFE9FFDDCFEAFFE1
:100AE000120041C4E9FF42C4EAFF1200D9CFE6FF79
:100AF000E1CFD9FF1200E552E7CFD9FF1200245110
:100B00000F0BE96EEA6AD890E936EA36120039C46A
:100B1000E9FF3AC4EAFF120010D9280EEE6E040E67
:100B2000ED6E1200FE0EEA6ADB347BEF06F0FD0E7E
:100B3000DB50E8240D6EFE0EDB50040DF3500D2447
:100B40001200DF50040DF3CFE9FFF4CFEAFF000EEF
:100B5000E926040EEA22EE6AEE6AEE6AEE6ADF2AFF
:100B60001200DF50DBD8EA22EF6ADF50D2D8EA2247
:100B7000EF6ADF2A1200010EE66EE66AE66A710E7F
:100B8000E66E0F0E69EF06F0EA22EE50EFCFEAFFB5
:100B9000E96E1200E66E53C4E9FF54C4EAFF532B1A
:100BA000000E5423E552E750EF6EDF061200EA22F2
:100BB000EECFDEFFEDCFDDFF1200000EE66EE66A3F
:100BC000E66EE66A120024510F0B89EF06F02451FD
:100BD0000F0B8EEF06F00C220BC0DEFF0CC0DDFF0A
:100BE0001200DF500B6E0C6A080E0B5C000E0C58E6
:100BF0001200FE0EDBCFE6FFF5EC01F0E552E55208
:100C00001200F7220900F5CF47F40A00F5CF48F4A7
:100C10001200160E6F6E9F0E6B6E7B0E696E1200C9
:100C2000010EE66EE66A000EE66EE66A1200F76AEC
:100C30004725F66E4851F722080012002251F66E41
:100C4000F76AD890F636F7361200D950020FE96EDF
:100C5000DACFEAFFEF5012003BC4E9FF3CC4EAFFE1
:100C60001200040DF3CF0BF0F4CF0CF0000E0B26A6
:100C7000040EB1DF840EA2EF06F05FD8200EEE6EF8
:100C8000040EED6E120032DF020EE1261200020E9B
:100C9000E66EE66ADECFE6FFDDCFE6FF050E68EF23
:100CA00005F00DDF8C0EEF6E1CDF840EEF6E120070
:100CB00026DF3D0EE926040E120021DF410EE92653
:100CC000040E120000DFC4EF05F006DFEF50800BCA
:100CD0001200E66EDCEC0DF00B6E050EE15E0B50C3
:100CE000120004DFE6521200FE0BEA36E96E410EF6
:100CF000E926040E1200FE0BEA36E96E3D0EE926E7
:100D0000040E1200D0EC06F00B6E060EE15E0B50E6
:100D10001200EA6A5C0FE96E040E1200EA6A5A0FCA
:100D2000E96E040E1200D8DEE850EF16120094DFD0
:100D3000EE52080EEF6E2CEF06F0020EE926000EC2
:0C0D4000EA221200C9DEE850EF12120097
:040D4C00120012007F
:100D500012001CEF07F012000401550520E1040108
:100D600056051DE1A09AF3DF6D920401566B040154
:100D7000100E7D6F0E0E7E6F7D07000E7E5B7D5127
:100D80007E11FAE16D84080E7D6F070E7E6F7D0780
:100D9000000E7E5B7D517E11FAE16D94A08A1200F7
:100DA000D9CFE6FFE1CFD9FFFD0EDBCF06F0FE0E77
:100DB000DBCF07F0050E061801E1075038E0E868C0
:100DC000061802E17F0E071830E0030E061801E155
:100DD000075029E0020E061801E1075022E0010E3B
:100DE000061801E107501AE0740E061801E10750D9
:100DF00013E0750E061801E107500CE0730E06189B
:100E000001E1075005E0720E061811E107500FD0FE
:100E10009FDF0DD09BDF0BD09ADF09D01AEC0EF0CC
:100E200006D099DF04D095DF02D037EC0EF0010E2A
:080E3000E552E7CFD9FF1200E3
:080E3800040120511F0B010809
:100E400001E01200245101E01200060E215D1EE1B6
:100E50002351230A1BE0010A0CE0030A17E10401F5
:100E6000370514E10401960E476F1C0E486F090EFA
:100E700009D0040137050AE10401D10E476F1C0EA9
:100E8000486F1C0E4A6F4B6BC00E496F0401205116
:100E9000600BE842E842E842E842E842010801E02B
:100EA000120021510B0A26E0080A19E0090A11E094
:100EB000080A05E00B0A23E0080A21E012000401F9
:100EC0006A0E476F000E486F010E4A6F4B6BC10EE2
:100ED0000FD00401800E496F23C46AF01200040190
:100EE0006B0E476F000E486F010E4A6F4B6B810E01
:100EF000496F12000401800E496F22C46BF012008A
:100F0000DACFE4FFE2CFDAFFE9CFE4FFEACFE4FF94
:100F1000F6CFE4FFF7CFE4FFF5CFE4FFF3CFE4FF34
:100F2000F4CFE4FFFACFE4FF00EE00F00B0EE8048C
:100F300003E3EECFE4FFFBD700EE0BF0040EE80472
:100F400003E3EECFE4FFFBD7E6526CEC00F0E55292
:100F500000EE0EF0040EE80403E3E5CFEDFFFBD74F
:100F600000EE0AF00B0EE80403E3E5CFEDFFFBD73C
:100F7000E5CFFAFFE5CFF4FFE5CFF3FFE5CFF5FFCF
:100F8000E5CFF7FFE5CFF6FFE5CFEAFFE5CFE9FFD5
:100F9000E5CFDAFF1100D8CFE4FFE0CFE4FFE46E45
:100FA000DACFE4FFE652E552E5CFDAFFE550E5CFD0
:080FB000E0FFE5CFD8FF1000BF
:080FB80013EE00F023EE00F03F
:100FC000F86A0A9C62EC0DF003EC08F0F6EC0DF008
:040FD000FBD7120039
:06100000DCEF07F0120016
:021006001200D6
:0610080080EF07F012006A
:06101800CBEF07F012000F
:02101E000401CB
:101020007F6B1200040104016E51010B02E08A86FD
:1010300001D08A96040104016E51020B02E08A88F5
:1010400001D08A9889848992E6680F0EE66E66C49C
:10105000E6FF67C4E6FF48D8E552E552E552E5529F
:101060008982898289946AC4E6FF6BC4E6FF68C4FA
:10107000E6FF69C4E6FF38D8E552E552E552E5528D
:10108000898400001200E30E8A168C6AF80E8D1611
:10109000E30E9316F80E961695689494E10E921648
:1010A0008D848A84898289848996899804016E91C5
:1010B0006E93D00E666F070E676F6E956E876E9992
:1010C000686969696A696B69ADDFCD96CF0ECD1429
:1010D0003009CD6ECD92CD80EFDA0401796B7A6B59
:1010E00004017B6B7C6B1200D5DA060EE126FD0E47
:1010F000DBCFDEFFDBCFDDFFFB0EDBCF06F0FC0E30
:10110000DBCF07F0020E06C0DBFF030E07C0DBFFDC
:10111000CBDAD9DA1BE1020EDBCF0DF0030EDBCF09
:101120000EF0D8DA05E0D8900C320B32E804FBE17F
:10113000010E0B14E8B08988E8A089988996898601
:10114000040EDB06050EE5E2DB06E3D7ADDABBDA1B
:1011500019E1DECF0DF0DDCF0EF0BCDA05E0D8905E
:101160000C320B32E804FBE1010E0B14E8B0898865
:10117000E8A0899889968986040EDB06050EE7E2C9
:10118000DB06E5D7060EE15C02E2E16AE5527DD2BC
:1011900081DA020EE126DE68DD688EDA04016E5126
:1011A0000C0BE842E842E8B2FC09000924E16EB900
:1011B00011D08150010B05E00ADA01E2DB0619DAF1
:1011C000F8E38150010B42E102DA01E2DB0611DAB9
:1011D0003DE2F7D78150010B05E1F9D901E2DB06C9
:1011E00008DAF8E38150010B31E0F1D901E2DB06C6
:1011F00000DA2CE2F7D76E510C0BE842E842E8B275
:10120000FC09010823E16EB911D08050200B05E0E4
:10121000DED901E2DB06EDD9F8E38050200B16E1C0
:10122000D6D901E2DB06E5D911E2F7D78050200BD1
:1012300005E1CDD901E2DB06DCD9F8E38050200BD3
:1012400005E0C5D901E2DB06D4D9F8E307EC00F0EC
:101250008B94020EE15C02E2E16AE55216D21ADAE0
:10126000130EE12680C4E9FF81C4EAFFEF28DF6E98
:10127000010E80C4DBFF020E81C4DBFF030EC0C47D
:10128000DBFF040EC1C4DBFF0401010E7F6FEF50D2
:10129000900A01E1FED0A00A01E1E3D0500A6AE021
:1012A000200A5BE0400A44E0020A01E0F6D0010EA9
:1012B000F36E050EF3CFDBFF060EDB6A0A0EF36E4C
:1012C000070EF3CFDBFF080EDB6A090EDB6E0A0E9A
:1012D000DB6A100EF36E0B0EF3CFDBFF0C0EDB6A36
:1012E000400EF36E0D0EF3CFDBFF0E0EDB6AC6D998
:1012F000EE52050EDBCFEEFF060EDBCFEEFF070E44
:10130000DBCFEEFF080EDBCFEEFF090EDBCFEEFFEB
:101310000A0EDBCFEEFF0B0EDBCFEEFF0C0EDBCFAA
:10132000EEFF0D0EDBCFEEFF0E0EDBCFEEFFB1D0EA
:1013300097D9EECF66F4EECF67F4EECF68F4EECF38
:1013400069F4EECF6AF4EECF6BF4EECF6CF4EECF2F
:101350006DF4EFCF6EF466DE9CD02BD9E66E010EF5
:101360000401EA6AC025E96EC151EA22E552E7505C
:10137000EF6E8FD0B6D974D9EF50780BE842E842BF
:10138000E842E8B6F009010A2AE0010A64E168D9F6
:10139000EF50070BE8B4F809020A09E0030A04E079
:1013A000010A07E18D9001D08D808D9202D08D9041
:1013B0008D82F29E8D9404016C516D1104E1E8DE82
:1013C00017EC0DF009D0E4DE6CC4E6FF6DC4E6FF57
:1013D00038EC0CF0E552E5528D84F28E3CD0110EC3
:1013E000DB6A120EDB6A5BD9F9D80BE241D901E363
:1013F000DB2A21D9000EE926060E24D9F5E3DB2AE3
:10140000F3D74DD9EBD80BE233D901E3DB2A13D95B
:10141000000EE926050E16D9F5E3DB2AF3D73FD9EE
:10142000DDD80BE225D901E3DB2A05D9000EE92638
:10143000020E08D9F5E3DB2AF3D731D9CFD80BE276
:1014400017D901E3DB2AF7D8000EE926010EFAD8F6
:10145000F5E3DB2AF3D707EC00F08B84DFCF00F64F
:1014600018D03FD9F29E94DE8D9404016C516D1119
:1014700003E1A1EC0CF008D06CC4E6FF6DC4E6FFFC
:101480009DEC0BF0E552E552F28E8D8407EC00F0F6
:101490008B84F4D8DFCFEFFF02D0F0D8EF6A130EC1
:1014A000E15C02E2E16AE552F0D0200E0401E76E51
:1014B0003619E8AE02D0E73402D0E750365D03E3D8
:1014C0006D50020B03E004017F6B120004017F5199
:1014D000020A25E0030A15E0010A01E012000401F6
:1014E00079517A1102E1000E08D079C4E9FF7AC47B
:1014F000EAFFEF50800B01E0010E000959E12FEFE8
:1015000009F004017B517C1102E1000E03D0F0D8F8
:1015100001E0010E00094CE180D871D813D004011C
:101520007B517C1102E1000E03D0E2D801E0010EF4
:1015300000093EE1040E0401655D07E160D8040185
:10154000646B656B04017F6B12006551030A15E043
:10155000010A0EE0030A07E0010A23E17AD8000F2E
:101560000B6E060E0ED075D8000F0B6E050E09D04F
:1015700070D8000F0B6E020E04D06BD8000F0B6EEC
:10158000010E0C220BC0E6FF0CC0E6FFC0C4E6FF54
:10159000C1C4E6FFB1EC0DF00D6E060EE15E0D501C
:1015A0003CD80401642B040E645D02E1646B652B7E
:1015B000120070D8E6528A948D948350DF6E8A842C
:1015C0008D84DF50E552E552E7CFD9FF1200DFCF1F
:1015D0000BF0DF06010EDBCF0CF012000F0EDBCF9D
:1015E0000BF0100EDBCF0CF0000E0B5C010E0C5854
:1015F0001200000ED8800B54000E0C541200400E46
:10160000E66E80C4E6FF81C4E6FFE66A010E77D885
:10161000F3CF79F4F4CF7AF41200400EE66EC0C432
:10162000E6FFC1C4E6FF010EE66E69D8F3CF7BF496
:10163000F4CF7CF412000F0EDBCFE9FF100EDBCFEE
:10164000EAFF1200EA220BC0EFFF0F0EDB2A100E9A
:101650001200400EE66EE66A6403F3500C6A120054
:10166000010EDBCFE9FF020EDBCFEAFFEE521200E4
:10167000110EDBCF0BF0DB2A120E1200030EDBCFB4
:10168000E9FF040EDBCFEAFF1200E16EE552E7CF7F
:10169000D9FF1200D9CFE6FFE1CFD9FF12000F0E1C
:1016A000DB6A100EDB6A12000B0EF36E040EF3CF32
:1016B000DBFF050EDB6A1200F00EBD140209BD6EE1
:1016C000BE68BF681200040E050EDBCF0CF0800E62
:1016D0000C141200040EDB500DC00BF00EC00CF009
:1016E00012000401646B656B0401020E7F6F12002F
:1016F0007BC4E9FF7CC4EAFFEF50800B1200E66E6A
:0E1700001EEC01F00B6E050EE15E0B501200A8
:02170E008B84CA
:101710009494000EBD6E1200BD821200BD928B84A7
:101720001200BD928B941200602B612B602F96EFFC
:101730000BF0612F96EF0BF01200FF0EE3CF63F07A
:10174000FE0EE3CF64F08D908D928A94000000002D
:101750000000000000017F0E626F06EE00F0835073
:101760008A848A94EE6E8D900000000000000000D4
:10177000000083508A848A94EE6E8D800000000001
:1017800000000000000063C061F064C060F094ECF1
:101790000BF0622FAFEF0BF07F0E626F05EE00F0E3
:1017A00083508A848A94EE6E8D90000000000000C1
:1017B0000000000083508A848A94EE6E8D800000C1
:1017C000000000000000000063C061F064C060F031
:1017D00094EC0BF0622FD0EF0BF07F0E626F02EEF5
:1017E00000F083508A848A94EE6E8D900000000091
:1017F00000000000000083508A848A94EE6E8D8081
:101800000000000000000000000063C061F064C040
:1018100060F094EC0BF0622FF1EF0BF07F0E626F33
:1018200001EE00F083508A848A94EE6E8D90000061
:10183000000000000000000083508A848A94EE6E4D
:101840008D800000000000000000000063C061F017
:1018500064C060F094EC0BF0622F12EF0CF08A84FD
:101860001200000E616F000E606F94EC0BF012001E
:10187000FF0EE3CF66F0FE0EE3CF67F08A94000020
:101880000000000000000001000E656F06EE00F091
:1018900083508A848A94EE6E0000000000000000ED
:1018A000000066C061F067C060F094EC0BF0652F3B
:1018B00048EF0CF00001000E656F05EE00F083505C
:1018C0008A848A94EE6E0000000000000000000090
:1018D00066C061F067C060F094EC0BF0652F5FEFBD
:1018E0000CF00001000E656F02EE00F083508A8458
:1018F0008A94EE6E0000000000000000000066C048
:1019000061F067C060F094EC0BF0652F76EF0CF09F
:101910000001000E656F01EE00F083508A848A9406
:10192000EE6E0000000000000000000066C061F0E4
:1019300067C060F094EC0BF0652F8DEF0CF08A849B
:1019400012008D908D928A9400000000000000002B
:101950000001800E686F06EE00F083508A848A943E
:10196000EE6E8D900000000000000000000083502B
:101970008A848A94EE6E8D800000000000000000D2
:101980000000682FADEF0CF0800E686F05EE00F0E0
:1019900083508A848A94EE6E8D90000000000000CF
:1019A0000000000083508A848A94EE6E8D800000CF
:1019B0000000000000000000682FC8EF0CF0800E4F
:1019C000686F02EE00F083508A848A94EE6E8D90E8
:1019D0000000000000000000000083508A848A9408
:1019E000EE6E8D8000000000000000000000682FF7
:1019F000E3EF0CF0800E686F01EE00F083508A84F4
:101A00008A94EE6E8D90000000000000000000003F
:101A100083508A848A94EE6E8D800000000000005E
:101A200000000000682FFEEF0CF08A8412008A94F8
:101A300000000000000000000001000E696F06EECB
:101A400000F083508A848A94EE6E0000692F21EFA3
:101A50000DF00001000E696F05EE00F083508A84DE
:101A60008A94EE6E0000692F2EEF0DF00001000E3B
:101A7000696F02EE00F083508A848A94EE6E000053
:101A8000692F3BEF0DF00001000E696F01EE00F0D1
:101A900083508A848A94EE6E0000692F48EF0DF01F
:101AA0008A841200000EF36E00EE00F0080E01D8DA
:101AB0001200EA6002D0EE6AFCD7F350E96012002F
:041AC000EE6AFCD7F7
:0C1AC4001E0EF66E000EF76E000EF86E9F
:101AD00004010900F550746F0900F550756F03E1BA
:101AE000746701D03DD00900F5506F6F0900F550C3
:101AF000706F0900F550716F09000900F550E96E2B
:101B00000900F550EA6E090009000900F550726FEE
:101B10000900F550736F09000900F6CF76F4F7CF8E
:101B200077F4F8CF78F46FC4F6FF70C4F7FF71C490
:101B3000F8FF0401725302E1735307E00900F55006
:101B4000EE6E7207F8E27307F9D776C4F6FF77C432
:101B5000F7FF78C4F8FF04017407000E755BBFD768
:021B6000120071
:0E1B6200D9CFE6FFDACFE6FFFA0EE3CFD9FFC8
:101B7000FB0EE3CFDAFFFC0EE3CFE9FFFD0EE3CF70
:101B8000EAFFE9CFF3FFEACFF4FFF80EE35003E1F9
:101B9000F90EE35008E0F80EE30602E2F90EE30660
:101BA000DECFEEFFF2D7FF0EE3CFDAFFE552FF0EF6
:101BB000E3CFD9FFE5521200FE0EE3CFE9FFFF0E9F
:101BC000E3CFEAFFE9CFF3FFEACFF4FFFB0EE350E8
:101BD00003E1FC0EE35009E0FB0EE30602E2FC0E1B
:0C1BE000E306FD0EE350EE6EF1D712009C
:041BEC0005D89DEC8F
:101BF00001F055EC0AF0FDD70F0EC11243EC08F0CE
:101C00001CEF00F06DB212000401365101E1120028
:101C1000360501E11200020E365D01E11200040EEC
:101C2000365D01E11200100E365D01E11200200E5A
:101C3000365D12001E0EE66E010EE66EFAEC00F046
:101C4000E552E552400EE66E800EE66E040EE66E3C
:101C5000E66A010EE66E1EEC01F00B6E050EE15E0B
:101C60000B50F3CF79F4F4CF7AF40FEF08F00FEFC5
:021C700008F07A
:0E1C72001201000200000008ADDEEFBE02000D
:101C80000102000109022900010100C0FA09040053
:101C9000000203000000092111010001221C0007BD
:101CA0000581034000010705010340000104030909
:101CB0000408036D00720075001803530061006D85
:101CC0000070006C006500530063006F00700065D9
:101CD000000600FF0901A101190129401501254055
:101CE000750895408100190129409100C0841CAD00
:051CF0001CB11CB91C31
:020000040030CA
:0100000024DB
:010001000EF0
:0100020038C5
:010003001EDE
:010005008179
:010006008178
:010008000FE8
:01000900C036
:01000A000FE6
:01000B00E014
:01000C000FE4
:01000D0040B2
:00000001FF
