:020000040000FA
:06000000C8EF0EF0120033
:0600080004EF08F01200F5
:02000E009D94BF
:04001000BD6A1200B3
:060018000CEF08F01200DD
:02001E000100DF
:0C0020000E100000640400000500000049
:04002C006BEC06F083
:10003000A09A6A6A686A706AB5EC05F003EC06F08B
:10004000DF6AEBEC05F003E29BEC05F0FAD76D8C70
:100050006E6A6D986D9C68A607D068960401496B1E
:100060004E6B4F6B506BF7D70401010E606F616FE1
:10007000626B636B566BDF6A020EDF5C11E2EA6A49
:10008000DF346EEC06F0EA22EE6AED6AEA6ADF34EB
:1000900075EC06F0EA22EE6AED6AABEC05F0ECD7FF
:1000A0000401080E416F040E426F160E706E0401BB
:1000B000200E026F040E036F080E016F840E006F96
:1000C0000401376B366BE55275EF05F06BEC06F00B
:1000D0000401360507E16DBA05D0686A6980698850
:1000E000020E366F6850040B05E06950040B02E005
:1000F00068943FDB6DB245D06850010B09E0695050
:10010000010B06E093DFA08A0401040E366F6890AD
:100110006850100B05E06950100B02E020DB689876
:1001200068AC0FD069AC05D00AEC06F0730E62EC37
:1001300005F0689C04015E5101E05E075E5101E13B
:1001400009D96850200B04E06950200B01E0F7DA70
:100150006850020B0BE06950020B08E00AEC06F055
:10016000E6687F0EE66E7CEC06F06A6A040E040117
:10017000E76E3619E8AE02D0E73402D0E750365DBC
:1001800002E2A19A2ED069A62BD0DF6A040EDF5CB2
:1001900027E268A625D06CCF57F404015751780B9D
:1001A000E842E842E842586F689657B504D0585183
:1001B00083EC06F003D0585188EC06F0EA22EF7089
:1001C000585102E1E2DA0AD0000EE66EE66A570EF6
:1001D000E66E040EE66E720E62EC05F0DF2AD6D7EC
:1001E000A19AE55275EF05F03DEC06F0FD0EDBA49B
:1001F00003D0E66AF3EC05F0FD0EDBA204D0010E9D
:10020000E66EF3EC05F0FE0EDB500C6A700F0B6E21
:100210000F0EE5EC05F066EC05F0FD0EDBCFEFFF11
:10022000020EE15C02E2E16AE552E16E75EF05F073
:100230003DEC06F0FD0EDB5003E05DEC05F002D076
:100240008CEC05F0D1EC05F0D9CFE9FFDACFEAFF6D
:10025000EE50ED1003E1F36AF46A28D066EC05F085
:1002600097EC06F0FB0EDBCFEEFFFC0EDBCFEDFFD5
:1002700066EC05F0EE52FA0EDBCFEFFF400E8DEC90
:1002800006F0880E9CEC06F0FD0EDB5003E05DEC02
:1002900005F002D08CEC05F0EA22EF74DECF0BF013
:1002A000DDCF0CF00BC0F3FF0CC0F4FF020EE15CDD
:1002B00002E2E16AE552E16E75EF05F03DEC06F011
:1002C000FE0EDB5003E14BEC06F009D091EC05F09B
:1002D0002BEC06F091EC05F0010F2BEC06F0020E72
:1002E000E15C02E2E16AE552E16E75EF05F070EC67
:1002F00005F06DA816D05CEC06F0400EEE16EE6A26
:10030000EE6AEE6A5CEC06F0EE7CD7DBEA22EF7474
:10031000400E0B6E5CEC06F00B50EF165CEC06F03A
:10032000EF7CE3D36D6A696A0401366B1200040145
:1003300036510FE16D6A696A03EC06F0D08EA28A2D
:10034000A08AF28E6DB602D06D86FCD70401010E34
:10035000366F12000401605122E1010E606F61519D
:100360001EE1010E616F020E465D07E1B4DBEE5245
:10037000EF6AB1DBC80EEF6E1200460510E1596B53
:10038000C0DBEE52080EEF6EBCDB37EC06F0B9DBDB
:10039000840EEF6E010E596F8CDB800EEF6E120033
:1003A0000401626B636B020E465D06E191EC06F0A0
:1003B000ADDB26EC06F010D04A510401265D0401A5
:1003C0004B510401275904E226C44AF427C44BF4D4
:1003D00061D881DB9BDB7FDBC80EEF6E12003DEC4A
:1003E00006F0000EDE6E040EDD6E9BDB040DF4CF16
:1003F0000CF0D9CFE9FFDACFEAFFF350EE260C502C
:10040000ED2264DBEF9EFD0EDB5002E185DB01D0C7
:1004100054DBEA22DECFEEFFDDCFEDFF57DBEF9CB2
:1004200055DB040EE926000EEA22EF8C020EE15C99
:1004300002E2E16AE552E16E58D36D98040149BFCA
:100440000DD04EAF09D0020E466F635101E1A8DF17
:100450000401616B606B12004BEF06F0040120AFEA
:100460000DD00401010E466F625101E199DF0401D4
:10047000616B606B5F510DE1AAEF01F00401020EA8
:10048000466F17DB840EEF6E616B606B5F5101E1AD
:1004900061DF12006BEC06F0080EDF6E04014A5DAE
:1004A000000E4B590AE24AC4DFFF455102E1010E3A
:1004B00003D0450502E1020E456FDF500C6AE8509B
:1004C0004A5D4A6F0C504B594B6F05DBEE52DFCF44
:1004D000EFFF280E536F040E546F49B10DD0DF505B
:1004E00017E047C4F6FF48C4F7FF472B000E482328
:1004F0000800F55049DBF3D7DF500AE047C4E9FFB5
:1005000048C4EAFF472B000E4823EF503DDBF4D7E9
:10051000E552EBD2B2DBF5DAEE52EFCFDFFFDFCF01
:100520000BF00B5004014F5D000E505902E24FC416
:10053000DFFFDF500B6E0C6AE8504F5D4F6F0C50C1
:100540005059506F010EDB6ADF50F36E010EDBCFA6
:10055000F4FFF350F45C16E2010EDB50EA6A280F58
:10056000E96E040EEA22EF50E66E4CC4E9FF4DC47A
:10057000EAFF4C2B000E4D23E552E750EF6E010EC3
:10058000DB2AE2D7000ED8804F55000E50550DE201
:10059000C8DBBCDAB6DAEF50400B03E157DBC80E1C
:1005A00002D054DB880EEF6E12D083DA840EEF6E29
:1005B0005151521107E005D052C4FAFF04015151C4
:1005C000F96EFADF04014E9F5F5101E1C3DE020EB6
:1005D000E15C02E2E16AE552E16E87D27CDB040174
:1005E000498FC3DADF6AF7DA02E2A5DAFCD76D8C4D
:1005F000DF6A020EDF5C02E2AEDAFBD7010EE66EC6
:10060000E66AE66A380EE66E040E5DDB6D9C040158
:10061000080E416F040E426F000E396F040E3A6FE0
:1006200039C43BF43C6F22C437F4375102E1100E59
:100630000BD0010EE66EE66A370EE66E040EE66E2D
:10064000010E40DA0401200E366FE5524ED2800EC4
:100650000401205D38E10401C00E496F04012351FB
:10066000030A1AE0010A09E0030A2BE104010C0E57
:10067000476F1D0E486F120E1ED0DADA870EF6266F
:100680001D0EB9DA020E0401CCDAF5CF4AF4030EDE
:10069000C8DAF5CF4BF41200030E225D0FE2C8DA80
:1006A000890EF6261D0EA7DA47C4F6FF48C4F7FFE9
:1006B0000800F55004014A6F4B6B12000401496BAE
:1006C00012000401496B1200D8DA0401286B296B6F
:1006D00020511F0B020A11E0030A0CE0010A1EE17F
:1006E0000401498F040128810401550517E1040123
:1006F000288314D00401498F11D00401498F0401CB
:1007000024BF02D0CFDA01D0D2DA4BDAD8DA06E051
:10071000DDD9EF50040B02E0010E286F040149AF50
:1007200007D0280E476F040E486F4981020E4A6FAA
:10073000020EE15C02E2E16AE552E16ED6D170A000
:100740000CD0DFD9EF50800807E1C5D9EF508408FD
:1007500003E1D7D98C0EEF6E7090689A120069840D
:1007600068986D820401010E566F21DA750E62EFF2
:1007700005F00401566B1BDA740EA4D96D926994CE
:1007800068A402D06894FCD71200A5DA04012D0EEB
:100790005E6FFD0E571539E17E0E5715E8407F0B51
:1007A000040DF3CF39F4F4CF3AF4000E3927040ED8
:1007B0003A2339C43BF43AC43CF43B75A2D9EF5018
:1007C0003C0BE842E8420D081EE1DF6A080EDF5CE0
:1007D00016E297D9020EE926000ED0D9EF50E66E48
:1007E000DF50EA6A200FE96E040EEA22E552E75074
:1007F000EF6E87D99CDAEE2AEF22DF2AE7D781D97C
:1008000036DA0AD807D023D805D0FD0E57150408CC
:1008100001E12CD8E55269D10401456B5F6B626B35
:10082000636B596B466B57D9EF9E417554D9EF9E58
:1008300041750CDAEF9E496B4A6B4B6B4E6B4F6BFD
:10084000506B4ED8B4D9030E3DD91DEF02F0020E05
:100850000401465D02E18AEF02F0466B595104E162
:1008600028D98C0EEF6E1200596B120034DA33D98E
:10087000EF50400B01E0010EDF6E04014175080EE0
:10088000365D08E122C46EFF6E5002E0100E01D00A
:10089000040E366F460513E11ED938D9FBDD020E72
:1008A0000401455D03E117D9840E07D0DF5003E151
:1008B00012D9C80E02D00FD9880EEF6E0FD04EAFEE
:1008C0000CD05151521107E005D052C4FAFF040177
:1008D0005151F96EFADF04014E9F466BE55205D186
:1008E00004012051600BE842E842E842E842E84255
:1008F000000901E0120021510C0A45E00B0A3FE01B
:100900000C0A31E0010A22E00B0A1EE0020A1CE098
:10091000030A18E0080A10E0010A0CE00F0A08E0D8
:10092000030A01E012000401498F080E366F12001D
:1009300027EF03F0EEEF02F00401370E476F040ECD
:10094000486F0CD064EF03F0C4EF04F024510401AD
:10095000476F486B380E4727040E48234981010E24
:100960004A6F498F12000401498F04012451EA6A39
:10097000380FE96E040EEA2222C4EFFF120017D9E5
:10098000020E62EF05F01200ABD8050EE12604015D
:10099000220510E120511F0B00090CE10401498FD1
:1009A000030E0401215D04E10401010E556F02D024
:1009B0000401556B0401225101E074D020511F0B3A
:1009C000020870E124510F0B00096CE024510F0B59
:1009D000010868E3200E0401365D64E1498F0401DB
:1009E00024BF04D05FD9DDD8E8D803D060D9D9D8E6
:1009F000E8D8EA22020EEFCFDBFF21D9010B03E199
:100A0000000EDF9401D0DF8424BF02D04BD901D087
:100A10004ED9EA22DECFEEFFDDCFEDFF030E215DE2
:100A20000CE14DD907E024BF02D0C7D801D0C9D806
:100A3000EA22EF82840E80D935D0DF7440D906E0F7
:100A400045D8EF9E43D8EF8C1CD902D03FD8EF8C0D
:100A5000DF74F5D8020B02E132D90DE0040124BFA6
:100A600002D0ABD801D0ADD8EA22EF923B0E0B6E8C
:100A700054D907D902D03B0E50D9040124510F0B91
:100A80000C6A700F0B6E0F0E0C22030E0BC0DBFFF7
:100A9000040E0CC0DBFF030EDBCFE9FF040EDBCF3F
:100AA000EAFFEF90050EE15C02E2E16AE552E16ED9
:100AB0001CD037D9DCD826EF06F0FE0EEA6ADB340C
:100AC0006EEF06F0E66EE66A7CEF06F0DECFE9FF39
:100AD000DDCFEAFF120041C4E9FF42C4EAFF120081
:100AE000D9CFE6FFE1CFD9FF1200E552E7CFD9FF1A
:100AF000120024510F0BE96EEA6AD890E936EA3603
:100B0000120039C4E9FF3AC4EAFF120010D9280ED6
:100B1000EE6E040EED6E1200FE0EEA6ADB3475EF27
:100B200006F0FD0EDB50E8240D6EFE0EDB50040DCA
:100B3000F3500D241200DF50040DF3CFE9FFF4CF82
:100B4000EAFF000EE926040EEA22EE6AEE6AEE6A79
:100B5000EE6ADF2A1200DF50DBD8EA22EF6ADF50AC
:100B6000D2D8EA22EF6ADF2A1200010EE66EE66AA8
:100B7000E66A710EE66E0F0E63EF06F0EA22EE50A3
:100B8000EFCFEAFFE96E1200E66E53C4E9FF54C4EA
:100B9000EAFF532B000E5423E552E750EF6EDF06B9
:100BA0001200EA22EECFDEFFEDCFDDFF1200000ED5
:100BB000E66EE66AE66EE66A120024510F0B83EFDA
:100BC00006F024510F0B88EF06F00C220BC0DEFF5D
:100BD0000CC0DDFF1200DF500B6E0C6A080E0B5CC0
:100BE000000E0C581200FE0EDBCFE6FFEFEC01F01A
:100BF000E552E5521200F7220900F5CF47F40A004A
:100C0000F5CF48F41200160E6F6E9F0E6B6E7B0EC2
:100C1000696E1200010EE66EE66A000EE66EE66A86
:100C20001200F76A4725F66E4851F72208001200B5
:100C30002251F66EF76AD890F636F7361200D95080
:100C4000020FE96EDACFEAFFEF5012003BC4E9FF72
:100C50003CC4EAFF1200040DF3CF0BF0F4CF0CF00C
:100C6000000E0B26040EB1DF840E9CEF06F05FD859
:100C7000200EEE6E040EED6E120032DF020EE12643
:100C80001200020EE66EE66ADECFE6FFDDCFE6FF7B
:100C9000050E62EF05F00DDF8C0EEF6E1CDF840E8B
:100CA000EF6E120026DF3D0EE926040E120021DF52
:100CB000410EE926040E120000DFBEEF05F006DF4C
:100CC000EF50800B1200E66EDAEC07F00B6E050EAB
:100CD000E15E0B50120004DFE6521200FE0BEA3612
:100CE000E96E410EE926040E1200FE0BEA36E96EAB
:100CF0003D0EE926040E120099EC0BF00B6E060E69
:100D0000E15E0B501200EA6A5C0FE96E040E1200FD
:100D1000EA6A5A0FE96E040E1200D8DEE850EF16A8
:100D2000120094DFEE52080EEF6E26EF06F0020E70
:100D3000E926000EEA221200C9DEE850EF12120086
:100D4000040120511F0B010801E01200245101E0B1
:100D50001200060E215D1EE12351230A1BE0010A49
:100D60000CE0030A17E10401370514E10401300E19
:100D7000476F1D0E486F090E09D0040137050AE1BF
:100D800004016B0E476F1D0E486F1C0E4A6F4B6BB4
:100D9000C00E496F04012051600BE842E842E8426E
:100DA000E842E842010801E0120021510B0A26E066
:100DB000080A19E0090A11E0080A05E00B0A23E015
:100DC000080A21E012000401690E476F040E486F03
:100DD000010E4A6F4B6BC10E0FD00401800E496F9C
:100DE00023C469F4120004016A0E476F040E486FB1
:100DF000010E4A6F4B6B810E496F12000401800E89
:080E0000496F22C46AF41200DC
:080E0800DACFE4FFE2CFDAFFCC
:100E1000E9CFE4FFEACFE4FFF6CFE4FFF7CFE4FF4A
:100E2000F5CFE4FFF3CFE4FFF4CFE4FFFACFE4FF24
:100E300000EE00F00B0EE80403E3EECFE4FFFBD777
:100E400000EE0BF0040EE80403E3EECFE4FFFBD763
:100E5000E65266EC00F0E55200EE0EF0040EE804F7
:100E600003E3E5CFEDFFFBD700EE0AF00B0EE8043D
:100E700003E3E5CFEDFFFBD7E5CFFAFFE5CFF4FFC6
:100E8000E5CFF3FFE5CFF5FFE5CFF7FFE5CFF6FFC1
:100E9000E5CFEAFFE5CFE9FFE5CFDAFF1100D8CFD4
:100EA000E4FFE0CFE4FFE46EDACFE4FFE652E55280
:100EB000E5CFDAFFE550E5CFE0FFE5CFD8FF100042
:100EC0001E0EF66E000EF76E000EF86E00010900A1
:100ED000F550F16F0900F550F26F03E1F16701D0B1
:100EE0003DD00900F550EC6F0900F550ED6F090099
:100EF000F550EE6F09000900F550E96E0900F55054
:100F0000EA6E090009000900F550EF6F0900F5507D
:100F1000F06F09000900F6CFF3F0F7CFF4F0F8CF47
:100F2000F5F0ECC0F6FFEDC0F7FFEEC0F8FF0001F2
:100F3000EF5302E1F05307E00900F550EE6EEF07C2
:100F4000F8E2F007F9D7F3C0F6FFF4C0F7FFF5C0F9
:0E0F5000F8FF0001F107000EF25BBFD71200A0
:020F5E00D9CFE9
:100F6000E6FFDACFE6FFFA0EE3CFD9FFFB0EE3CFC1
:100F7000DAFFFC0EE3CFE9FFFD0EE3CFEAFFE9CF96
:100F8000F3FFEACFF4FFF80EE35003E1F90EE3506C
:100F900008E0F80EE30602E2F90EE306DECFEEFF0C
:100FA000F2D7FF0EE3CFDAFFE552FF0EE3CFD9FF12
:100FB000E5521200FE0EE3CFE9FFFF0EE3CFEAFF9A
:100FC000E9CFF3FFEACFF4FFFB0EE35003E1FC0EA1
:100FD000E35009E0FB0EE30602E2FC0EE306FD0E21
:080FE000E350EE6EF1D71200A0
:06100000C8EF0EF0120023
:021006001200D6
:0610080004EF07F01200E6
:02100E000000E0
:03101000000000DD
:061018004FEF07F012008B
:02101E0004D8F4
:1010200097EC01F0BFDAFED70F0EC11233D816EFDE
:1010300000F000010001E951010B02E08A8601D0B5
:101040008A9600010001E951020B02E08A8801D072
:101050008A9889848992E6680F0EE66EE1C0E6FF01
:10106000E2C0E6FF4BD8E552E552E552E5528982EF
:1010700089828994E5C0E6FFE6C0E6FFE3C0E6FFAB
:10108000E4C0E6FF3BD8E552E552E552E5528984DB
:1010900000001200E30E8A168C6AF80E8D16E30E1D
:1010A0009316F80E961695689494E10E92168D8418
:1010B0008A8489828984899689980001E991E993D3
:1010C000D00EE16F070EE26FE995E987E999E369D0
:1010D000E469E569E669ADDF010E0001E76FE86BE1
:1010E000CD96CF0ECD143009CD6ECD92CD80DBDB09
:1010F0000401646B656B666B676B1200BEDB060EEA
:10110000E126FD0EDBCFDEFFDBCFDDFFFB0EDBCF0D
:1011100006F0FC0EDBCF07F0020E06C0DBFF030E6D
:1011200007C0DBFFB8DBC6DB1BE1020EDBCF0DF037
:10113000030EDBCF0EF0C5DB05E0D8900C320B328E
:10114000E804FBE1010E0B14E8B08988E8A0899857
:1011500089968986040EDB06050EE5E2DB06E3D7F9
:101160009ADBA8DB19E1DECF0DF0DDCF0EF0A9DBB5
:1011700005E0D8900C320B32E804FBE1010E0B14B1
:10118000E8B08988E8A0899889968986040EDB06EC
:10119000050EE7E2DB06E5D7060EE15C02E2E16A56
:1011A000E552E16E6FD369DB020EE126DE68DD6891
:1011B0007ADB0001E9510C0BE842E842E8B2FC0995
:1011C000000924E1E9B911D08150010B05E0F9DAF9
:1011D00001E2DB0603DBF8E38150010B42E1F1DAC7
:1011E00001E2DB06FBDA3DE2F7D78150010B05E1B6
:1011F000E8DA01E2DB06F2DAF8E38150010B31E0D4
:10120000E0DA01E2DB06EADA2CE2F7D7E9510C0B6F
:10121000E842E842E8B2FC09010823E1E9B911D04B
:101220008050200B05E0CDDA01E2DB06D7DAF8E3E7
:101230008050200B16E1C5DA01E2DB06CFDA11E2BD
:10124000F7D78050200B05E1BCDA01E2DB06C6DAF5
:10125000F8E38050200B05E0B4DA01E2DB06BEDAE9
:10126000F8E307EC00F08B94020EE15C02E2E16A25
:10127000E552E16E07D301DB190EE1260401802956
:10128000DF6ED950010FE96EDACFEAFF800EEE6E05
:10129000040EED6ED950030FE96EDACFEAFFC00EEF
:1012A000EE6E040EED6E0401010E686FDBCFE9FFF8
:1012B000020EDBCFEAFFEF50900A01E166D1A00AEF
:1012C00001E147D1500A63E0200A5DE0400A46E0B0
:1012D000020A01E05ED1010EF36E050EF3CFDBFFD3
:1012E000060EDB6A0A0EF36E070EF3CFDBFF080E65
:1012F000DB6A090EDB6E0A0EDB6A040EF36E0B0E60
:10130000F3CFDBFF0C0EDB6A400EF36E0D0EF3CF56
:10131000DBFF0E0EDB6A85DAEE52050EDBCFEEFF49
:10132000060EDBCFEEFF070EDBCFEEFF080EDBCFA6
:10133000EEFF090EDBCFEEFF0A0EDBCFEEFF0B0E4A
:10134000DBCFEEFF0C0EDBCFEEFF0D0EDBCFEEFFA3
:101350000E0EDBCFEEFF65DADFCFEFFF77DAEECFF1
:10136000E1F0EECFE2F0EECFE3F0EECFE4F0EECF3F
:10137000E5F0EECFE6F0EECFE7F0EECFE8F0EFCF1E
:10138000E9F057DE02D17CD90401C16FFED0000123
:10139000E06B0401020E686F59DAEF50780BE842F7
:1013A000E842E842E8B6F009040A01E1B1D0070AD0
:1013B00001E18DD0010A6AE0030A2BE0010A01E095
:1013C000E1D044DAEF50070BE8B4F809020A09E06B
:1013D000030A04E0010A07E18D9001D08D808D920F
:1013E00002D08D908D82F29E8D940001E751E8111C
:1013F00004E1D9DE35EC0EF009D0D5DEE7C0E6FF1A
:10140000E8C0E6FF56EC0DF0E552E5528D84F28E11
:10141000B9D0110EDB6A120EDB6A38DAD9D90BE2C9
:1014200026DA01E3DB2A04DAC00EE926040E07DA25
:10143000F5E3DB2AF3D72ADACBD90BE218DA01E39A
:10144000DB2AF6D9800EE926040EF9D9F5E3DB2A6A
:10145000F3D71CDABDD90BE20ADA01E3DB2AE8D9BB
:10146000600EE926000EEBD9F5E3DB2AF3D70EDA9E
:10147000AFD901E387D0FBD901E3DB2AD9D9A00E8C
:10148000E926000EDCD9F4E3DB2AF2D7130EDB6A7F
:10149000140EDB6A130EDBCF0BF0140E37DA72E298
:1014A000130EDBCFE9FF140E38DA9ED9600EE92661
:1014B000000E9AD9800EE926040E96D934DA130E5E
:1014C000DBCFEFFFDB2A140EE5E3DB2AE3D7150EB3
:1014D000DB6A160EDB6A150EDBCF0BF0160E16DA82
:1014E00051E2150EDBCFE9FF160E17DA91D9600E27
:1014F000E926000E8DD9800EE926040E89D913DA6B
:10150000000EEF6E150EDB2A160EE5E3DB2AE3D79D
:10151000170EDB6A180EDB6A170EDBCF0BF0180E06
:10152000F5D930E2170EDBCFE9FF180EF6D966D9F0
:10153000600EE926000E62D9800EE926040E5ED9FF
:10154000F2D9800EEF6E170EDB2A180EE5E3DB2AC8
:10155000E3D70001E06B0401020E686FF29E23DE08
:101560008D940001E751E81103E1BFEC0DF008D0C4
:10157000E7C0E6FFE8C0E6FFBBEC0CF0E552E55241
:10158000F28E8D8407EC00F08B844BD9DFCFEFFF18
:1015900002D047D9EF6A190EE15C02E2E16AE55236
:1015A000E16E70D1200E0401E76E3619E8AE02D06C
:1015B000E73402D0E750365D03E36D50020B03E0E1
:1015C0000401686B120004016851020A24E0030A56
:1015D00014E0010A01E012006451651102E1000EFD
:1015E00008D064C4E9FF65C4EAFFEF50800B01E056
:1015F000010E000944E13BEF09F06651671102E179
:10160000000E03D065D901E0010E000938E1D5D8FC
:101610000401686B12006651671102E1000E03D0ED
:1016200057D901E0010E00092AE10001E051030A47
:101630001AE0010A0BE0030A03E0010A0EE01200BF
:10164000400EE66E800EE66E040E09D0400EE66E89
:10165000E66A600EE66E000E01D9400E69D94DD9DA
:101660000001E02B1200400EE66EE66AA00EE66E68
:10167000000EF4D8A2D80001E06B0401686B1200E0
:10168000FCD8E6528A948D948350DF6E8A848D84D0
:10169000DF50E552F7D06DB212000401365101E17E
:1016A0001200360501E11200020E365D01E1120062
:1016B000040E365D01E11200100E365D01E11200EC
:1016C000200E365D12001200120012000401686B39
:1016D0001200A0EF06F012001E0EE66E010EE66E7E
:1016E000F4EC00F0E552E552FAD00401550520E192
:1016F000040156051DE1A09AE7DF6D920401566BC7
:101700000001100EEA6F0E0EEB6FEA07000EEB5BA6
:10171000EA51EB11FAE16D84080EEA6F070EEB6FE8
:10172000EA07000EEB5BEA51EB11FAE16D94A08A37
:101730001200A3D8FD0EDBCF06F0FE0EDBCF07F0C4
:10174000050E061801E1075036E0E868061802E1C8
:101750007F0E07182FE0030E061801E1075028E05E
:10176000020E061801E1075021E0010E061801E102
:1017700007501AE0740E061801E1075013E0750EC9
:10178000061801E107500CE0730E061801E107503E
:1017900005E0720E06180FE107500DD096DF0BD052
:1017A00092DF09D091DF07D097DF05D094DF03D017
:1017B00090DF01D08BDF010E65D0400EB9D89DD8E7
:1017C0008ED0DFCF0BF0DF06010EDBCF0CF0120066
:1017D0000F0EDBCF0BF0100E86EF0CF0000ED88052
:1017E0000B54000E0C541200EA22130EDBCFEFFF55
:1017F000DBCFE9FF140EDBCFEAFF1200EA22800EF6
:10180000EF6E170EDBCFE9FF180EDBCFEAFF1200F9
:10181000EA22EF6A150EDBCFE9FF160EDBCFEAFFF7
:101820001200030EDBCFE9FF040EDBCFEAFF12004C
:101830000F0EDBCFE9FF100EDBCFEAFF1200EA222A
:101840000BC0EFFF0F0EDB2A100E1200010EDBCFD4
:10185000E9FF020EDBCFEAFFEE52120069D8E66E16
:10186000AFEC07F00B6E060EE15E0B501200110E8E
:10187000DBCF0BF0DB2A120E1200D9CFE6FFE1CF4F
:10188000D9FF1200E552E7CFD9FF12000F0EDB6A35
:10189000100EDB6A12000B0EF36E040EF3CFDBFFAB
:1018A000050EDB6A1200F00EBD140209BD6EBE68A3
:1018B000BF681200040E050EDBCF0CF0800E0C1476
:1018C0001200040EDB500DC00BF00EC00CF0120025
:1018D00066C4E9FF67C4EAFFEF50800B1200400EB8
:1018E000E66E800EE66E040EE66EE66A010E25D800
:1018F000F3CF64F4F4CF65F41200E66E010EE66EE9
:101900001CD8F3CF66F4F4CF67F41200DBCF0CF0F1
:10191000400E0B5C000E0C581200DBCFEAFFA00E4D
:10192000E926000E1200C00EE926040EEA2212007B
:10193000E66EC00EE66E040E1200E66E18EC01F0C4
:0A1940000B6E050EE15E0B50120065
:06194A008B849494000E52
:10195000BD6E1200BD821200BD928B841200BD923A
:101960008B941200F62BF72BF62FB4EF0CF0F72F19
:10197000B4EF0CF01200FF0EE3CFF9F0FE0EE3CF50
:10198000FAF08D908D928A94000000000000000013
:101990000001200EF86F04EEC0F083508A848A9410
:1019A000EE6E8D90000000000000000000008350EB
:1019B0008A848A94EE6E8D80000000000000000092
:1019C0000000F9C0F7F0FAC0F6F0B2EC0CF0F82F16
:1019D000CDEF0CF0200EF86F04EE80F083508A8477
:1019E0008A94EE6E8D900000000000000000000060
:1019F00083508A848A94EE6E8D800000000000007F
:101A000000000000F9C0F7F0FAC0F6F0B2EC0CF0FC
:101A1000F82FEEEF0CF0200EF86F00EE60F0835020
:101A20008A848A94EE6E8D90000000000000000011
:101A3000000083508A848A94EE6E8D80000000003E
:101A4000000000000000F9C0F7F0FAC0F6F0B2ECB8
:101A50000CF0F82F0FEF0DF0200EF86F00EEA0F055
:101A600083508A848A94EE6E8D90000000000000FE
:101A70000000000083508A848A94EE6E8D800000FE
:101A80000000000000000000F9C0F7F0FAC0F6F016
:101A9000B2EC0CF0F82F30EF0DF08A841200000E3B
:101AA000F76F000EF66FB2EC0CF01200FF0EE3CFF2
:101AB000FCF0FE0EE3CFFDF08A9400000000000071
:101AC00000000001400EFB6F04EEC0F083508A84DA
:101AD0008A94EE6E00000000000000000000FCC0D0
:101AE000F7F0FDC0F6F0B2EC0CF0FB2F66EF0DF056
:101AF0000001400EFB6F04EE80F083508A848A94CC
:101B0000EE6E00000000000000000000FCC0F7F0D6
:101B1000FDC0F6F0B2EC0CF0FB2F7DEF0DF00001F4
:101B2000400EFB6F00EE60F083508A848A94EE6E64
:101B300000000000000000000000FCC0F7F0FDC045
:101B4000F6F0B2EC0CF0FB2F94EF0DF00001400E1C
:101B5000FB6F00EEA0F083508A848A94EE6E000042
:101B60000000000000000000FCC0F7F0FDC0F6F02F
:101B7000B2EC0CF0FB2FABEF0DF08A8412008D90CD
:101B80008D928A9400000000000000000001200EE9
:101B9000FE6F04EEC0F083508A848A94EE6E8D90BE
:101BA0000000000000000000000083508A848A9436
:101BB000EE6E8D8000000000000000000000FE2F8F
:101BC000CBEF0DF0200EFE6F04EE80F083508A8480
:101BD0008A94EE6E8D90000000000000000000006E
:101BE00083508A848A94EE6E8D800000000000008D
:101BF00000000000FE2FE6EF0DF0200EFE6F00EE5D
:101C000060F083508A848A94EE6E8D90000000000C
:101C100000000000000083508A848A94EE6E8D805C
:101C200000000000000000000000FE2F01EF0EF099
:101C3000200EFE6F00EEA0F083508A848A94EE6E30
:101C40008D900000000000000000000083508A8496
:101C50008A94EE6E8D8000000000000000000000FD
:101C6000FE2F1CEF0EF08A8412008A940000000000
:101C7000000000000001400EFF6F04EEC0F0835032
:101C80008A848A94EE6E0000FF2F3FEF0EF0000171
:101C9000400EFF6F04EE80F083508A848A94EE6ECB
:101CA0000000FF2F4CEF0EF00001400EFF6F00EE22
:101CB00060F083508A848A94EE6E0000FF2F59EF03
:101CC0000EF00001400EFF6F00EEA0F083508A84FA
:101CD0008A94EE6E0000FF2F66EF0EF08A841200E9
:101CE000000EF36E00EE00F0020E07D8000EF36E49
:101CF00004EE00F0050E01D81200EA6002D0EE6A90
:0C1D0000FCD7F350E9601200EE6AFCD73B
:041D0C0012010002BE
:101D100000000008ADDEEFBE020001020001090272
:101D20002900010100C0FA090400000203000000BC
:101D3000092111010001221C000705810340000157
:101D4000070501034000010403090408036D007244
:101D50000075001803530061006D0070006C006591
:101D600000530063006F00700065000600FF09016A
:101D7000A1011901294015012540750895408100F0
:0F1D8000190129409100C01E1D471D4B1D531D09
:101D900011EE00F021EE00F0F86A0A9C60EC07F00A
:0C1DA00003EC08F00FEC08F0FBD7120079
:020000040030CA
:0100000024DB
:010001000EF0
:0100020036C7
:010003001EDE
:01000500807A
:010006008178
:0100080003F4
:0100090040B6
:01000A0003F2
:01000B006094
:01000C0003F0
:01000D0040B2
:00000001FF
